{
  "_format": "hh-sol-artifact-1",
  "contractName": "MWANFT",
  "sourceName": "contracts/MWANFT.sol",
  "abi": [
    {
      "inputs": [
        {
          "internalType": "address",
          "name": "initialOwner",
          "type": "address"
        }
      ],
      "stateMutability": "nonpayable",
      "type": "constructor"
    },
    {
      "inputs": [
        {
          "internalType": "address",
          "name": "sender",
          "type": "address"
        },
        {
          "internalType": "uint256",
          "name": "tokenId",
          "type": "uint256"
        },
        {
          "internalType": "address",
          "name": "owner",
          "type": "address"
        }
      ],
      "name": "ERC721IncorrectOwner",
      "type": "error"
    },
    {
      "inputs": [
        {
          "internalType": "address",
          "name": "operator",
          "type": "address"
        },
        {
          "internalType": "uint256",
          "name": "tokenId",
          "type": "uint256"
        }
      ],
      "name": "ERC721InsufficientApproval",
      "type": "error"
    },
    {
      "inputs": [
        {
          "internalType": "address",
          "name": "approver",
          "type": "address"
        }
      ],
      "name": "ERC721InvalidApprover",
      "type": "error"
    },
    {
      "inputs": [
        {
          "internalType": "address",
          "name": "operator",
          "type": "address"
        }
      ],
      "name": "ERC721InvalidOperator",
      "type": "error"
    },
    {
      "inputs": [
        {
          "internalType": "address",
          "name": "owner",
          "type": "address"
        }
      ],
      "name": "ERC721InvalidOwner",
      "type": "error"
    },
    {
      "inputs": [
        {
          "internalType": "address",
          "name": "receiver",
          "type": "address"
        }
      ],
      "name": "ERC721InvalidReceiver",
      "type": "error"
    },
    {
      "inputs": [
        {
          "internalType": "address",
          "name": "sender",
          "type": "address"
        }
      ],
      "name": "ERC721InvalidSender",
      "type": "error"
    },
    {
      "inputs": [
        {
          "internalType": "uint256",
          "name": "tokenId",
          "type": "uint256"
        }
      ],
      "name": "ERC721NonexistentToken",
      "type": "error"
    },
    {
      "inputs": [
        {
          "internalType": "address",
          "name": "owner",
          "type": "address"
        }
      ],
      "name": "OwnableInvalidOwner",
      "type": "error"
    },
    {
      "inputs": [
        {
          "internalType": "address",
          "name": "account",
          "type": "address"
        }
      ],
      "name": "OwnableUnauthorizedAccount",
      "type": "error"
    },
    {
      "anonymous": false,
      "inputs": [
        {
          "indexed": true,
          "internalType": "address",
          "name": "owner",
          "type": "address"
        },
        {
          "indexed": true,
          "internalType": "address",
          "name": "approved",
          "type": "address"
        },
        {
          "indexed": true,
          "internalType": "uint256",
          "name": "tokenId",
          "type": "uint256"
        }
      ],
      "name": "Approval",
      "type": "event"
    },
    {
      "anonymous": false,
      "inputs": [
        {
          "indexed": true,
          "internalType": "address",
          "name": "owner",
          "type": "address"
        },
        {
          "indexed": true,
          "internalType": "address",
          "name": "operator",
          "type": "address"
        },
        {
          "indexed": false,
          "internalType": "bool",
          "name": "approved",
          "type": "bool"
        }
      ],
      "name": "ApprovalForAll",
      "type": "event"
    },
    {
      "anonymous": false,
      "inputs": [
        {
          "indexed": false,
          "internalType": "uint256",
          "name": "_fromTokenId",
          "type": "uint256"
        },
        {
          "indexed": false,
          "internalType": "uint256",
          "name": "_toTokenId",
          "type": "uint256"
        }
      ],
      "name": "BatchMetadataUpdate",
      "type": "event"
    },
    {
      "anonymous": false,
      "inputs": [
        {
          "indexed": false,
          "internalType": "uint256",
          "name": "_tokenId",
          "type": "uint256"
        }
      ],
      "name": "MetadataUpdate",
      "type": "event"
    },
    {
      "anonymous": false,
      "inputs": [
        {
          "indexed": true,
          "internalType": "address",
          "name": "previousOwner",
          "type": "address"
        },
        {
          "indexed": true,
          "internalType": "address",
          "name": "newOwner",
          "type": "address"
        }
      ],
      "name": "OwnershipTransferred",
      "type": "event"
    },
    {
      "anonymous": false,
      "inputs": [
        {
          "indexed": true,
          "internalType": "address",
          "name": "from",
          "type": "address"
        },
        {
          "indexed": true,
          "internalType": "address",
          "name": "to",
          "type": "address"
        },
        {
          "indexed": true,
          "internalType": "uint256",
          "name": "tokenId",
          "type": "uint256"
        }
      ],
      "name": "Transfer",
      "type": "event"
    },
    {
      "inputs": [
        {
          "internalType": "address",
          "name": "to",
          "type": "address"
        },
        {
          "internalType": "uint256",
          "name": "tokenId",
          "type": "uint256"
        }
      ],
      "name": "approve",
      "outputs": [],
      "stateMutability": "nonpayable",
      "type": "function"
    },
    {
      "inputs": [
        {
          "internalType": "address",
          "name": "owner",
          "type": "address"
        }
      ],
      "name": "balanceOf",
      "outputs": [
        {
          "internalType": "uint256",
          "name": "",
          "type": "uint256"
        }
      ],
      "stateMutability": "view",
      "type": "function"
    },
    {
      "inputs": [
        {
          "internalType": "address",
          "name": "newOwner",
          "type": "address"
        }
      ],
      "name": "changeOwner",
      "outputs": [
        {
          "internalType": "bool",
          "name": "",
          "type": "bool"
        }
      ],
      "stateMutability": "nonpayable",
      "type": "function"
    },
    {
      "inputs": [
        {
          "internalType": "uint256",
          "name": "tokenId",
          "type": "uint256"
        }
      ],
      "name": "getApproved",
      "outputs": [
        {
          "internalType": "address",
          "name": "",
          "type": "address"
        }
      ],
      "stateMutability": "view",
      "type": "function"
    },
    {
      "inputs": [],
      "name": "getCBalance",
      "outputs": [
        {
          "internalType": "uint256",
          "name": "",
          "type": "uint256"
        }
      ],
      "stateMutability": "view",
      "type": "function"
    },
    {
      "inputs": [
        {
          "internalType": "address",
          "name": "owner",
          "type": "address"
        },
        {
          "internalType": "address",
          "name": "operator",
          "type": "address"
        }
      ],
      "name": "isApprovedForAll",
      "outputs": [
        {
          "internalType": "bool",
          "name": "",
          "type": "bool"
        }
      ],
      "stateMutability": "view",
      "type": "function"
    },
    {
      "inputs": [
        {
          "internalType": "address",
          "name": "recipient",
          "type": "address"
        },
        {
          "internalType": "string",
          "name": "tokenURI",
          "type": "string"
        }
      ],
      "name": "mintNFT",
      "outputs": [
        {
          "internalType": "uint256",
          "name": "",
          "type": "uint256"
        }
      ],
      "stateMutability": "payable",
      "type": "function"
    },
    {
      "inputs": [],
      "name": "mintPrice",
      "outputs": [
        {
          "internalType": "uint256",
          "name": "",
          "type": "uint256"
        }
      ],
      "stateMutability": "view",
      "type": "function"
    },
    {
      "inputs": [],
      "name": "name",
      "outputs": [
        {
          "internalType": "string",
          "name": "",
          "type": "string"
        }
      ],
      "stateMutability": "view",
      "type": "function"
    },
    {
      "inputs": [],
      "name": "owner",
      "outputs": [
        {
          "internalType": "address",
          "name": "",
          "type": "address"
        }
      ],
      "stateMutability": "view",
      "type": "function"
    },
    {
      "inputs": [
        {
          "internalType": "uint256",
          "name": "tokenId",
          "type": "uint256"
        }
      ],
      "name": "ownerOf",
      "outputs": [
        {
          "internalType": "address",
          "name": "",
          "type": "address"
        }
      ],
      "stateMutability": "view",
      "type": "function"
    },
    {
      "inputs": [],
      "name": "renounceOwnership",
      "outputs": [],
      "stateMutability": "nonpayable",
      "type": "function"
    },
    {
      "inputs": [
        {
          "internalType": "address",
          "name": "from",
          "type": "address"
        },
        {
          "internalType": "address",
          "name": "to",
          "type": "address"
        },
        {
          "internalType": "uint256",
          "name": "tokenId",
          "type": "uint256"
        }
      ],
      "name": "safeTransferFrom",
      "outputs": [],
      "stateMutability": "nonpayable",
      "type": "function"
    },
    {
      "inputs": [
        {
          "internalType": "address",
          "name": "from",
          "type": "address"
        },
        {
          "internalType": "address",
          "name": "to",
          "type": "address"
        },
        {
          "internalType": "uint256",
          "name": "tokenId",
          "type": "uint256"
        },
        {
          "internalType": "bytes",
          "name": "data",
          "type": "bytes"
        }
      ],
      "name": "safeTransferFrom",
      "outputs": [],
      "stateMutability": "nonpayable",
      "type": "function"
    },
    {
      "inputs": [
        {
          "internalType": "address",
          "name": "operator",
          "type": "address"
        },
        {
          "internalType": "bool",
          "name": "approved",
          "type": "bool"
        }
      ],
      "name": "setApprovalForAll",
      "outputs": [],
      "stateMutability": "nonpayable",
      "type": "function"
    },
    {
      "inputs": [],
      "name": "supply",
      "outputs": [
        {
          "internalType": "uint256",
          "name": "",
          "type": "uint256"
        }
      ],
      "stateMutability": "view",
      "type": "function"
    },
    {
      "inputs": [
        {
          "internalType": "bytes4",
          "name": "interfaceId",
          "type": "bytes4"
        }
      ],
      "name": "supportsInterface",
      "outputs": [
        {
          "internalType": "bool",
          "name": "",
          "type": "bool"
        }
      ],
      "stateMutability": "view",
      "type": "function"
    },
    {
      "inputs": [],
      "name": "symbol",
      "outputs": [
        {
          "internalType": "string",
          "name": "",
          "type": "string"
        }
      ],
      "stateMutability": "view",
      "type": "function"
    },
    {
      "inputs": [
        {
          "internalType": "uint256",
          "name": "tokenId",
          "type": "uint256"
        }
      ],
      "name": "tokenURI",
      "outputs": [
        {
          "internalType": "string",
          "name": "",
          "type": "string"
        }
      ],
      "stateMutability": "view",
      "type": "function"
    },
    {
      "inputs": [
        {
          "internalType": "address",
          "name": "from",
          "type": "address"
        },
        {
          "internalType": "address",
          "name": "to",
          "type": "address"
        },
        {
          "internalType": "uint256",
          "name": "tokenId",
          "type": "uint256"
        }
      ],
      "name": "transferFrom",
      "outputs": [],
      "stateMutability": "nonpayable",
      "type": "function"
    },
    {
      "inputs": [
        {
          "internalType": "address",
          "name": "newOwner",
          "type": "address"
        }
      ],
      "name": "transferOwnership",
      "outputs": [],
      "stateMutability": "nonpayable",
      "type": "function"
    },
    {
      "inputs": [],
      "name": "withdraw",
      "outputs": [
        {
          "internalType": "bool",
          "name": "",
          "type": "bool"
        }
      ],
      "stateMutability": "payable",
      "type": "function"
    }
  ],
  "bytecode": "0x60806040523480156200001157600080fd5b506040516200324c3803806200324c833981810160405281019062000037919062000288565b806040518060400160405280600681526020017f4d57414e465400000000000000000000000000000000000000000000000000008152506040518060400160405280600381526020017f4d574100000000000000000000000000000000000000000000000000000000008152508160009081620000b5919062000534565b508060019081620000c7919062000534565b505050600073ffffffffffffffffffffffffffffffffffffffff168173ffffffffffffffffffffffffffffffffffffffff16036200013f5760006040517f1e4fbdf70000000000000000000000000000000000000000000000000000000081526004016200013691906200062c565b60405180910390fd5b62000150816200015860201b60201c565b505062000649565b6000600760009054906101000a900473ffffffffffffffffffffffffffffffffffffffff16905081600760006101000a81548173ffffffffffffffffffffffffffffffffffffffff021916908373ffffffffffffffffffffffffffffffffffffffff1602179055508173ffffffffffffffffffffffffffffffffffffffff168173ffffffffffffffffffffffffffffffffffffffff167f8be0079c531659141344cd1fd0a4f28419497f9722a3daafe3b4186f6b6457e060405160405180910390a35050565b600080fd5b600073ffffffffffffffffffffffffffffffffffffffff82169050919050565b6000620002508262000223565b9050919050565b620002628162000243565b81146200026e57600080fd5b50565b600081519050620002828162000257565b92915050565b600060208284031215620002a157620002a06200021e565b5b6000620002b18482850162000271565b91505092915050565b600081519050919050565b7f4e487b7100000000000000000000000000000000000000000000000000000000600052604160045260246000fd5b7f4e487b7100000000000000000000000000000000000000000000000000000000600052602260045260246000fd5b600060028204905060018216806200033c57607f821691505b602082108103620003525762000351620002f4565b5b50919050565b60008190508160005260206000209050919050565b60006020601f8301049050919050565b600082821b905092915050565b600060088302620003bc7fffffffffffffffffffffffffffffffffffffffffffffffffffffffffffffffff826200037d565b620003c886836200037d565b95508019841693508086168417925050509392505050565b6000819050919050565b6000819050919050565b6000620004156200040f6200040984620003e0565b620003ea565b620003e0565b9050919050565b6000819050919050565b6200043183620003f4565b6200044962000440826200041c565b8484546200038a565b825550505050565b600090565b6200046062000451565b6200046d81848462000426565b505050565b5b8181101562000495576200048960008262000456565b60018101905062000473565b5050565b601f821115620004e457620004ae8162000358565b620004b9846200036d565b81016020851015620004c9578190505b620004e1620004d8856200036d565b83018262000472565b50505b505050565b600082821c905092915050565b60006200050960001984600802620004e9565b1980831691505092915050565b6000620005248383620004f6565b9150826002028217905092915050565b6200053f82620002ba565b67ffffffffffffffff8111156200055b576200055a620002c5565b5b62000567825462000323565b6200057482828562000499565b600060209050601f831160018114620005ac576000841562000597578287015190505b620005a3858262000516565b86555062000613565b601f198416620005bc8662000358565b60005b82811015620005e657848901518255600182019150602085019450602081019050620005bf565b8683101562000606578489015162000602601f891682620004f6565b8355505b6001600288020188555050505b505050505050565b620006268162000243565b82525050565b60006020820190506200064360008301846200061b565b92915050565b612bf380620006596000396000f3fe6080604052600436106101355760003560e01c806370a08231116100ab578063a6f9dae11161006f578063a6f9dae114610409578063b88d4fde14610446578063c87b56dd1461046f578063e985e9c5146104ac578063eacabe14146104e9578063f2fde38b1461051957610135565b806370a0823114610336578063715018a6146103735780638da5cb5b1461038a57806395d89b41146103b5578063a22cb465146103e057610135565b806323b872dd116100fd57806323b872dd146102335780633ccfd60b1461025c57806342842e0e1461027a57806344a6da72146102a35780636352211e146102ce5780636817c76c1461030b57610135565b806301ffc9a71461013a578063047fc9aa1461017757806306fdde03146101a2578063081812fc146101cd578063095ea7b31461020a575b600080fd5b34801561014657600080fd5b50610161600480360381019061015c9190611e69565b610542565b60405161016e9190611eb1565b60405180910390f35b34801561018357600080fd5b5061018c6105a3565b6040516101999190611ee5565b60405180910390f35b3480156101ae57600080fd5b506101b76105a8565b6040516101c49190611f90565b60405180910390f35b3480156101d957600080fd5b506101f460048036038101906101ef9190611fde565b61063a565b604051610201919061204c565b60405180910390f35b34801561021657600080fd5b50610231600480360381019061022c9190612093565b610656565b005b34801561023f57600080fd5b5061025a600480360381019061025591906120d3565b61066c565b005b61026461076e565b6040516102719190611eb1565b60405180910390f35b34801561028657600080fd5b506102a1600480360381019061029c91906120d3565b6108a8565b005b3480156102af57600080fd5b506102b86108c8565b6040516102c59190611ee5565b60405180910390f35b3480156102da57600080fd5b506102f560048036038101906102f09190611fde565b6108d8565b604051610302919061204c565b60405180910390f35b34801561031757600080fd5b506103206108ea565b60405161032d9190611ee5565b60405180910390f35b34801561034257600080fd5b5061035d60048036038101906103589190612126565b6108f5565b60405161036a9190611ee5565b60405180910390f35b34801561037f57600080fd5b506103886109af565b005b34801561039657600080fd5b5061039f6109c3565b6040516103ac919061204c565b60405180910390f35b3480156103c157600080fd5b506103ca6109ed565b6040516103d79190611f90565b60405180910390f35b3480156103ec57600080fd5b506104076004803603810190610402919061217f565b610a7f565b005b34801561041557600080fd5b50610430600480360381019061042b9190612126565b610a95565b60405161043d9190611eb1565b60405180910390f35b34801561045257600080fd5b5061046d600480360381019061046891906122f4565b610ab1565b005b34801561047b57600080fd5b5061049660048036038101906104919190611fde565b610ace565b6040516104a39190611f90565b60405180910390f35b3480156104b857600080fd5b506104d360048036038101906104ce9190612377565b610be1565b6040516104e09190611eb1565b60405180910390f35b61050360048036038101906104fe9190612458565b610c75565b6040516105109190611ee5565b60405180910390f35b34801561052557600080fd5b50610540600480360381019061053b9190612126565b610d42565b005b6000634906490660e01b7bffffffffffffffffffffffffffffffffffffffffffffffffffffffff1916827bffffffffffffffffffffffffffffffffffffffffffffffffffffffff1916148061059c575061059b82610dc8565b5b9050919050565b606481565b6060600080546105b7906124e3565b80601f01602080910402602001604051908101604052809291908181526020018280546105e3906124e3565b80156106305780601f1061060557610100808354040283529160200191610630565b820191906000526020600020905b81548152906001019060200180831161061357829003601f168201915b5050505050905090565b600061064582610eaa565b5061064f82610f32565b9050919050565b6106688282610663610f6f565b610f77565b5050565b600073ffffffffffffffffffffffffffffffffffffffff168273ffffffffffffffffffffffffffffffffffffffff16036106de5760006040517f64a0ae920000000000000000000000000000000000000000000000000000000081526004016106d5919061204c565b60405180910390fd5b60006106f283836106ed610f6f565b610f89565b90508373ffffffffffffffffffffffffffffffffffffffff168173ffffffffffffffffffffffffffffffffffffffff1614610768578382826040517f64283d7b00000000000000000000000000000000000000000000000000000000815260040161075f93929190612514565b60405180910390fd5b50505050565b60006107786111a3565b6107806109c3565b73ffffffffffffffffffffffffffffffffffffffff163373ffffffffffffffffffffffffffffffffffffffff16146107ed576040517f08c379a00000000000000000000000000000000000000000000000000000000081526004016107e490612597565b60405180910390fd5b60006107f76109c3565b73ffffffffffffffffffffffffffffffffffffffff164760405161081a906125e8565b60006040518083038185875af1925050503d8060008114610857576040519150601f19603f3d011682016040523d82523d6000602084013e61085c565b606091505b50509050806108a0576040517f08c379a000000000000000000000000000000000000000000000000000000000815260040161089790612649565b60405180910390fd5b600191505090565b6108c383838360405180602001604052806000815250610ab1565b505050565b60006108d26111a3565b47905090565b60006108e382610eaa565b9050919050565b66470de4df82000081565b60008073ffffffffffffffffffffffffffffffffffffffff168273ffffffffffffffffffffffffffffffffffffffff16036109685760006040517f89c62b6400000000000000000000000000000000000000000000000000000000815260040161095f919061204c565b60405180910390fd5b600360008373ffffffffffffffffffffffffffffffffffffffff1673ffffffffffffffffffffffffffffffffffffffff168152602001908152602001600020549050919050565b6109b76111a3565b6109c1600061122a565b565b6000600760009054906101000a900473ffffffffffffffffffffffffffffffffffffffff16905090565b6060600180546109fc906124e3565b80601f0160208091040260200160405190810160405280929190818152602001828054610a28906124e3565b8015610a755780601f10610a4a57610100808354040283529160200191610a75565b820191906000526020600020905b815481529060010190602001808311610a5857829003601f168201915b5050505050905090565b610a91610a8a610f6f565b83836112f0565b5050565b6000610a9f6111a3565b610aa882610d42565b60019050919050565b610abc84848461066c565b610ac88484848461145f565b50505050565b6060610ad982610eaa565b506000600660008481526020019081526020016000208054610afa906124e3565b80601f0160208091040260200160405190810160405280929190818152602001828054610b26906124e3565b8015610b735780601f10610b4857610100808354040283529160200191610b73565b820191906000526020600020905b815481529060010190602001808311610b5657829003601f168201915b505050505090506000610b84611616565b90506000815103610b99578192505050610bdc565b600082511115610bce578082604051602001610bb69291906126a5565b60405160208183030381529060405292505050610bdc565b610bd78461162d565b925050505b919050565b6000600560008473ffffffffffffffffffffffffffffffffffffffff1673ffffffffffffffffffffffffffffffffffffffff16815260200190815260200160002060008373ffffffffffffffffffffffffffffffffffffffff1673ffffffffffffffffffffffffffffffffffffffff16815260200190815260200160002060009054906101000a900460ff16905092915050565b600066470de4df8200003414610cc0576040517f08c379a0000000000000000000000000000000000000000000000000000000008152600401610cb790612715565b60405180910390fd5b6000600854905060648110610d0a576040517f08c379a0000000000000000000000000000000000000000000000000000000008152600401610d0190612781565b60405180910390fd5b610d148482611696565b610d1e818461178f565b600160086000828254610d3191906127d0565b925050819055508091505092915050565b610d4a6111a3565b600073ffffffffffffffffffffffffffffffffffffffff168173ffffffffffffffffffffffffffffffffffffffff1603610dbc5760006040517f1e4fbdf7000000000000000000000000000000000000000000000000000000008152600401610db3919061204c565b60405180910390fd5b610dc58161122a565b50565b60007f80ac58cd000000000000000000000000000000000000000000000000000000007bffffffffffffffffffffffffffffffffffffffffffffffffffffffff1916827bffffffffffffffffffffffffffffffffffffffffffffffffffffffff19161480610e9357507f5b5e139f000000000000000000000000000000000000000000000000000000007bffffffffffffffffffffffffffffffffffffffffffffffffffffffff1916827bffffffffffffffffffffffffffffffffffffffffffffffffffffffff1916145b80610ea35750610ea2826117eb565b5b9050919050565b600080610eb683611855565b9050600073ffffffffffffffffffffffffffffffffffffffff168173ffffffffffffffffffffffffffffffffffffffff1603610f2957826040517f7e273289000000000000000000000000000000000000000000000000000000008152600401610f209190611ee5565b60405180910390fd5b80915050919050565b60006004600083815260200190815260200160002060009054906101000a900473ffffffffffffffffffffffffffffffffffffffff169050919050565b600033905090565b610f848383836001611892565b505050565b600080610f9584611855565b9050600073ffffffffffffffffffffffffffffffffffffffff168373ffffffffffffffffffffffffffffffffffffffff1614610fd757610fd6818486611a57565b5b600073ffffffffffffffffffffffffffffffffffffffff168173ffffffffffffffffffffffffffffffffffffffff161461106857611019600085600080611892565b6001600360008373ffffffffffffffffffffffffffffffffffffffff1673ffffffffffffffffffffffffffffffffffffffff168152602001908152602001600020600082825403925050819055505b600073ffffffffffffffffffffffffffffffffffffffff168573ffffffffffffffffffffffffffffffffffffffff16146110eb576001600360008773ffffffffffffffffffffffffffffffffffffffff1673ffffffffffffffffffffffffffffffffffffffff168152602001908152602001600020600082825401925050819055505b846002600086815260200190815260200160002060006101000a81548173ffffffffffffffffffffffffffffffffffffffff021916908373ffffffffffffffffffffffffffffffffffffffff160217905550838573ffffffffffffffffffffffffffffffffffffffff168273ffffffffffffffffffffffffffffffffffffffff167fddf252ad1be2c89b69c2b068fc378daa952ba7f163c4a11628f55a4df523b3ef60405160405180910390a4809150509392505050565b6111ab610f6f565b73ffffffffffffffffffffffffffffffffffffffff166111c96109c3565b73ffffffffffffffffffffffffffffffffffffffff1614611228576111ec610f6f565b6040517f118cdaa700000000000000000000000000000000000000000000000000000000815260040161121f919061204c565b60405180910390fd5b565b6000600760009054906101000a900473ffffffffffffffffffffffffffffffffffffffff16905081600760006101000a81548173ffffffffffffffffffffffffffffffffffffffff021916908373ffffffffffffffffffffffffffffffffffffffff1602179055508173ffffffffffffffffffffffffffffffffffffffff168173ffffffffffffffffffffffffffffffffffffffff167f8be0079c531659141344cd1fd0a4f28419497f9722a3daafe3b4186f6b6457e060405160405180910390a35050565b600073ffffffffffffffffffffffffffffffffffffffff168273ffffffffffffffffffffffffffffffffffffffff160361136157816040517f5b08ba18000000000000000000000000000000000000000000000000000000008152600401611358919061204c565b60405180910390fd5b80600560008573ffffffffffffffffffffffffffffffffffffffff1673ffffffffffffffffffffffffffffffffffffffff16815260200190815260200160002060008473ffffffffffffffffffffffffffffffffffffffff1673ffffffffffffffffffffffffffffffffffffffff16815260200190815260200160002060006101000a81548160ff0219169083151502179055508173ffffffffffffffffffffffffffffffffffffffff168373ffffffffffffffffffffffffffffffffffffffff167f17307eab39ab6107e8899845ad3d59bd9653f200f220920489ca2b5937696c31836040516114529190611eb1565b60405180910390a3505050565b60008373ffffffffffffffffffffffffffffffffffffffff163b1115611610578273ffffffffffffffffffffffffffffffffffffffff1663150b7a026114a3610f6f565b8685856040518563ffffffff1660e01b81526004016114c59493929190612859565b6020604051808303816000875af192505050801561150157506040513d601f19601f820116820180604052508101906114fe91906128ba565b60015b611585573d8060008114611531576040519150601f19603f3d011682016040523d82523d6000602084013e611536565b606091505b50600081510361157d57836040517f64a0ae92000000000000000000000000000000000000000000000000000000008152600401611574919061204c565b60405180910390fd5b805181602001fd5b63150b7a0260e01b7bffffffffffffffffffffffffffffffffffffffffffffffffffffffff1916817bffffffffffffffffffffffffffffffffffffffffffffffffffffffff19161461160e57836040517f64a0ae92000000000000000000000000000000000000000000000000000000008152600401611605919061204c565b60405180910390fd5b505b50505050565b606060405180602001604052806000815250905090565b606061163882610eaa565b506000611643611616565b90506000815111611663576040518060200160405280600081525061168e565b8061166d84611b1b565b60405160200161167e9291906126a5565b6040516020818303038152906040525b915050919050565b600073ffffffffffffffffffffffffffffffffffffffff168273ffffffffffffffffffffffffffffffffffffffff16036117085760006040517f64a0ae920000000000000000000000000000000000000000000000000000000081526004016116ff919061204c565b60405180910390fd5b600061171683836000610f89565b9050600073ffffffffffffffffffffffffffffffffffffffff168173ffffffffffffffffffffffffffffffffffffffff161461178a5760006040517f73c6ac6e000000000000000000000000000000000000000000000000000000008152600401611781919061204c565b60405180910390fd5b505050565b806006600084815260200190815260200160002090816117af9190612a93565b507ff8e1a15aba9398e019f0b49df1a4fde98ee17ae345cb5f6b5e2c27f5033e8ce7826040516117df9190611ee5565b60405180910390a15050565b60007f01ffc9a7000000000000000000000000000000000000000000000000000000007bffffffffffffffffffffffffffffffffffffffffffffffffffffffff1916827bffffffffffffffffffffffffffffffffffffffffffffffffffffffff1916149050919050565b60006002600083815260200190815260200160002060009054906101000a900473ffffffffffffffffffffffffffffffffffffffff169050919050565b80806118cb5750600073ffffffffffffffffffffffffffffffffffffffff168273ffffffffffffffffffffffffffffffffffffffff1614155b156119ff5760006118db84610eaa565b9050600073ffffffffffffffffffffffffffffffffffffffff168373ffffffffffffffffffffffffffffffffffffffff161415801561194657508273ffffffffffffffffffffffffffffffffffffffff168173ffffffffffffffffffffffffffffffffffffffff1614155b801561195957506119578184610be1565b155b1561199b57826040517fa9fbf51f000000000000000000000000000000000000000000000000000000008152600401611992919061204c565b60405180910390fd5b81156119fd57838573ffffffffffffffffffffffffffffffffffffffff168273ffffffffffffffffffffffffffffffffffffffff167f8c5be1e5ebec7d5bd14f71427d1e84f3dd0314c0f7b2291e5b200ac8c7c3b92560405160405180910390a45b505b836004600085815260200190815260200160002060006101000a81548173ffffffffffffffffffffffffffffffffffffffff021916908373ffffffffffffffffffffffffffffffffffffffff16021790555050505050565b611a62838383611be9565b611b1657600073ffffffffffffffffffffffffffffffffffffffff168373ffffffffffffffffffffffffffffffffffffffff1603611ad757806040517f7e273289000000000000000000000000000000000000000000000000000000008152600401611ace9190611ee5565b60405180910390fd5b81816040517f177e802f000000000000000000000000000000000000000000000000000000008152600401611b0d929190612b65565b60405180910390fd5b505050565b606060006001611b2a84611caa565b01905060008167ffffffffffffffff811115611b4957611b486121c9565b5b6040519080825280601f01601f191660200182016040528015611b7b5781602001600182028036833780820191505090505b509050600082602001820190505b600115611bde578080600190039150507f3031323334353637383961626364656600000000000000000000000000000000600a86061a8153600a8581611bd257611bd1612b8e565b5b04945060008503611b89575b819350505050919050565b60008073ffffffffffffffffffffffffffffffffffffffff168373ffffffffffffffffffffffffffffffffffffffff1614158015611ca157508273ffffffffffffffffffffffffffffffffffffffff168473ffffffffffffffffffffffffffffffffffffffff161480611c625750611c618484610be1565b5b80611ca057508273ffffffffffffffffffffffffffffffffffffffff16611c8883610f32565b73ffffffffffffffffffffffffffffffffffffffff16145b5b90509392505050565b600080600090507a184f03e93ff9f4daa797ed6e38ed64bf6a1f0100000000000000008310611d08577a184f03e93ff9f4daa797ed6e38ed64bf6a1f0100000000000000008381611cfe57611cfd612b8e565b5b0492506040810190505b6d04ee2d6d415b85acef81000000008310611d45576d04ee2d6d415b85acef81000000008381611d3b57611d3a612b8e565b5b0492506020810190505b662386f26fc100008310611d7457662386f26fc100008381611d6a57611d69612b8e565b5b0492506010810190505b6305f5e1008310611d9d576305f5e1008381611d9357611d92612b8e565b5b0492506008810190505b6127108310611dc2576127108381611db857611db7612b8e565b5b0492506004810190505b60648310611de55760648381611ddb57611dda612b8e565b5b0492506002810190505b600a8310611df4576001810190505b80915050919050565b6000604051905090565b600080fd5b600080fd5b60007fffffffff0000000000000000000000000000000000000000000000000000000082169050919050565b611e4681611e11565b8114611e5157600080fd5b50565b600081359050611e6381611e3d565b92915050565b600060208284031215611e7f57611e7e611e07565b5b6000611e8d84828501611e54565b91505092915050565b60008115159050919050565b611eab81611e96565b82525050565b6000602082019050611ec66000830184611ea2565b92915050565b6000819050919050565b611edf81611ecc565b82525050565b6000602082019050611efa6000830184611ed6565b92915050565b600081519050919050565b600082825260208201905092915050565b60005b83811015611f3a578082015181840152602081019050611f1f565b60008484015250505050565b6000601f19601f8301169050919050565b6000611f6282611f00565b611f6c8185611f0b565b9350611f7c818560208601611f1c565b611f8581611f46565b840191505092915050565b60006020820190508181036000830152611faa8184611f57565b905092915050565b611fbb81611ecc565b8114611fc657600080fd5b50565b600081359050611fd881611fb2565b92915050565b600060208284031215611ff457611ff3611e07565b5b600061200284828501611fc9565b91505092915050565b600073ffffffffffffffffffffffffffffffffffffffff82169050919050565b60006120368261200b565b9050919050565b6120468161202b565b82525050565b6000602082019050612061600083018461203d565b92915050565b6120708161202b565b811461207b57600080fd5b50565b60008135905061208d81612067565b92915050565b600080604083850312156120aa576120a9611e07565b5b60006120b88582860161207e565b92505060206120c985828601611fc9565b9150509250929050565b6000806000606084860312156120ec576120eb611e07565b5b60006120fa8682870161207e565b935050602061210b8682870161207e565b925050604061211c86828701611fc9565b9150509250925092565b60006020828403121561213c5761213b611e07565b5b600061214a8482850161207e565b91505092915050565b61215c81611e96565b811461216757600080fd5b50565b60008135905061217981612153565b92915050565b6000806040838503121561219657612195611e07565b5b60006121a48582860161207e565b92505060206121b58582860161216a565b9150509250929050565b600080fd5b600080fd5b7f4e487b7100000000000000000000000000000000000000000000000000000000600052604160045260246000fd5b61220182611f46565b810181811067ffffffffffffffff821117156122205761221f6121c9565b5b80604052505050565b6000612233611dfd565b905061223f82826121f8565b919050565b600067ffffffffffffffff82111561225f5761225e6121c9565b5b61226882611f46565b9050602081019050919050565b82818337600083830152505050565b600061229761229284612244565b612229565b9050828152602081018484840111156122b3576122b26121c4565b5b6122be848285612275565b509392505050565b600082601f8301126122db576122da6121bf565b5b81356122eb848260208601612284565b91505092915050565b6000806000806080858703121561230e5761230d611e07565b5b600061231c8782880161207e565b945050602061232d8782880161207e565b935050604061233e87828801611fc9565b925050606085013567ffffffffffffffff81111561235f5761235e611e0c565b5b61236b878288016122c6565b91505092959194509250565b6000806040838503121561238e5761238d611e07565b5b600061239c8582860161207e565b92505060206123ad8582860161207e565b9150509250929050565b600067ffffffffffffffff8211156123d2576123d16121c9565b5b6123db82611f46565b9050602081019050919050565b60006123fb6123f6846123b7565b612229565b905082815260208101848484011115612417576124166121c4565b5b612422848285612275565b509392505050565b600082601f83011261243f5761243e6121bf565b5b813561244f8482602086016123e8565b91505092915050565b6000806040838503121561246f5761246e611e07565b5b600061247d8582860161207e565b925050602083013567ffffffffffffffff81111561249e5761249d611e0c565b5b6124aa8582860161242a565b9150509250929050565b7f4e487b7100000000000000000000000000000000000000000000000000000000600052602260045260246000fd5b600060028204905060018216806124fb57607f821691505b60208210810361250e5761250d6124b4565b5b50919050565b6000606082019050612529600083018661203d565b6125366020830185611ed6565b612543604083018461203d565b949350505050565b7f556e617574686f72697a65640000000000000000000000000000000000000000600082015250565b6000612581600c83611f0b565b915061258c8261254b565b602082019050919050565b600060208201905081810360008301526125b081612574565b9050919050565b600081905092915050565b50565b60006125d26000836125b7565b91506125dd826125c2565b600082019050919050565b60006125f3826125c5565b9150819050919050565b7f5769746864726177206661696c65642e00000000000000000000000000000000600082015250565b6000612633601083611f0b565b915061263e826125fd565b602082019050919050565b6000602082019050818103600083015261266281612626565b9050919050565b600081905092915050565b600061267f82611f00565b6126898185612669565b9350612699818560208601611f1c565b80840191505092915050565b60006126b18285612674565b91506126bd8284612674565b91508190509392505050565b7f50726f76696465206d6f72652045544800000000000000000000000000000000600082015250565b60006126ff601083611f0b565b915061270a826126c9565b602082019050919050565b6000602082019050818103600083015261272e816126f2565b9050919050565b7f4e6f206d6f7265204e4654730000000000000000000000000000000000000000600082015250565b600061276b600c83611f0b565b915061277682612735565b602082019050919050565b6000602082019050818103600083015261279a8161275e565b9050919050565b7f4e487b7100000000000000000000000000000000000000000000000000000000600052601160045260246000fd5b60006127db82611ecc565b91506127e683611ecc565b92508282019050808211156127fe576127fd6127a1565b5b92915050565b600081519050919050565b600082825260208201905092915050565b600061282b82612804565b612835818561280f565b9350612845818560208601611f1c565b61284e81611f46565b840191505092915050565b600060808201905061286e600083018761203d565b61287b602083018661203d565b6128886040830185611ed6565b818103606083015261289a8184612820565b905095945050505050565b6000815190506128b481611e3d565b92915050565b6000602082840312156128d0576128cf611e07565b5b60006128de848285016128a5565b91505092915050565b60008190508160005260206000209050919050565b60006020601f8301049050919050565b600082821b905092915050565b6000600883026129497fffffffffffffffffffffffffffffffffffffffffffffffffffffffffffffffff8261290c565b612953868361290c565b95508019841693508086168417925050509392505050565b6000819050919050565b600061299061298b61298684611ecc565b61296b565b611ecc565b9050919050565b6000819050919050565b6129aa83612975565b6129be6129b682612997565b848454612919565b825550505050565b600090565b6129d36129c6565b6129de8184846129a1565b505050565b5b81811015612a02576129f76000826129cb565b6001810190506129e4565b5050565b601f821115612a4757612a18816128e7565b612a21846128fc565b81016020851015612a30578190505b612a44612a3c856128fc565b8301826129e3565b50505b505050565b600082821c905092915050565b6000612a6a60001984600802612a4c565b1980831691505092915050565b6000612a838383612a59565b9150826002028217905092915050565b612a9c82611f00565b67ffffffffffffffff811115612ab557612ab46121c9565b5b612abf82546124e3565b612aca828285612a06565b600060209050601f831160018114612afd5760008415612aeb578287015190505b612af58582612a77565b865550612b5d565b601f198416612b0b866128e7565b60005b82811015612b3357848901518255600182019150602085019450602081019050612b0e565b86831015612b505784890151612b4c601f891682612a59565b8355505b6001600288020188555050505b505050505050565b6000604082019050612b7a600083018561203d565b612b876020830184611ed6565b9392505050565b7f4e487b7100000000000000000000000000000000000000000000000000000000600052601260045260246000fdfea26469706673582212203e89ad06a537522dfaca4b45963ac87d5db20abf0c5eab28bbeeefde882dadba64736f6c63430008140033",
  "linkReferences": {},
  "deployedLinkReferences": {}
}