{
  "_format": "hh-sol-artifact-1",
  "contractName": "MWANFT",
  "sourceName": "contracts/MWANFT.sol",
  "abi": [
    {
      "inputs": [
        {
          "internalType": "address",
          "name": "initialOwner",
          "type": "address"
        }
      ],
      "stateMutability": "nonpayable",
      "type": "constructor"
    },
    {
      "inputs": [
        {
          "internalType": "address",
          "name": "sender",
          "type": "address"
        },
        {
          "internalType": "uint256",
          "name": "tokenId",
          "type": "uint256"
        },
        {
          "internalType": "address",
          "name": "owner",
          "type": "address"
        }
      ],
      "name": "ERC721IncorrectOwner",
      "type": "error"
    },
    {
      "inputs": [
        {
          "internalType": "address",
          "name": "operator",
          "type": "address"
        },
        {
          "internalType": "uint256",
          "name": "tokenId",
          "type": "uint256"
        }
      ],
      "name": "ERC721InsufficientApproval",
      "type": "error"
    },
    {
      "inputs": [
        {
          "internalType": "address",
          "name": "approver",
          "type": "address"
        }
      ],
      "name": "ERC721InvalidApprover",
      "type": "error"
    },
    {
      "inputs": [
        {
          "internalType": "address",
          "name": "operator",
          "type": "address"
        }
      ],
      "name": "ERC721InvalidOperator",
      "type": "error"
    },
    {
      "inputs": [
        {
          "internalType": "address",
          "name": "owner",
          "type": "address"
        }
      ],
      "name": "ERC721InvalidOwner",
      "type": "error"
    },
    {
      "inputs": [
        {
          "internalType": "address",
          "name": "receiver",
          "type": "address"
        }
      ],
      "name": "ERC721InvalidReceiver",
      "type": "error"
    },
    {
      "inputs": [
        {
          "internalType": "address",
          "name": "sender",
          "type": "address"
        }
      ],
      "name": "ERC721InvalidSender",
      "type": "error"
    },
    {
      "inputs": [
        {
          "internalType": "uint256",
          "name": "tokenId",
          "type": "uint256"
        }
      ],
      "name": "ERC721NonexistentToken",
      "type": "error"
    },
    {
      "inputs": [
        {
          "internalType": "address",
          "name": "owner",
          "type": "address"
        }
      ],
      "name": "OwnableInvalidOwner",
      "type": "error"
    },
    {
      "inputs": [
        {
          "internalType": "address",
          "name": "account",
          "type": "address"
        }
      ],
      "name": "OwnableUnauthorizedAccount",
      "type": "error"
    },
    {
      "anonymous": false,
      "inputs": [
        {
          "indexed": true,
          "internalType": "address",
          "name": "owner",
          "type": "address"
        },
        {
          "indexed": true,
          "internalType": "address",
          "name": "approved",
          "type": "address"
        },
        {
          "indexed": true,
          "internalType": "uint256",
          "name": "tokenId",
          "type": "uint256"
        }
      ],
      "name": "Approval",
      "type": "event"
    },
    {
      "anonymous": false,
      "inputs": [
        {
          "indexed": true,
          "internalType": "address",
          "name": "owner",
          "type": "address"
        },
        {
          "indexed": true,
          "internalType": "address",
          "name": "operator",
          "type": "address"
        },
        {
          "indexed": false,
          "internalType": "bool",
          "name": "approved",
          "type": "bool"
        }
      ],
      "name": "ApprovalForAll",
      "type": "event"
    },
    {
      "anonymous": false,
      "inputs": [
        {
          "indexed": false,
          "internalType": "uint256",
          "name": "_fromTokenId",
          "type": "uint256"
        },
        {
          "indexed": false,
          "internalType": "uint256",
          "name": "_toTokenId",
          "type": "uint256"
        }
      ],
      "name": "BatchMetadataUpdate",
      "type": "event"
    },
    {
      "anonymous": false,
      "inputs": [
        {
          "indexed": false,
          "internalType": "uint256",
          "name": "_tokenId",
          "type": "uint256"
        }
      ],
      "name": "MetadataUpdate",
      "type": "event"
    },
    {
      "anonymous": false,
      "inputs": [
        {
          "indexed": true,
          "internalType": "address",
          "name": "previousOwner",
          "type": "address"
        },
        {
          "indexed": true,
          "internalType": "address",
          "name": "newOwner",
          "type": "address"
        }
      ],
      "name": "OwnershipTransferred",
      "type": "event"
    },
    {
      "anonymous": false,
      "inputs": [
        {
          "indexed": true,
          "internalType": "address",
          "name": "from",
          "type": "address"
        },
        {
          "indexed": true,
          "internalType": "address",
          "name": "to",
          "type": "address"
        },
        {
          "indexed": true,
          "internalType": "uint256",
          "name": "tokenId",
          "type": "uint256"
        }
      ],
      "name": "Transfer",
      "type": "event"
    },
    {
      "inputs": [
        {
          "internalType": "address",
          "name": "to",
          "type": "address"
        },
        {
          "internalType": "uint256",
          "name": "tokenId",
          "type": "uint256"
        }
      ],
      "name": "approve",
      "outputs": [],
      "stateMutability": "nonpayable",
      "type": "function"
    },
    {
      "inputs": [
        {
          "internalType": "address",
          "name": "owner",
          "type": "address"
        }
      ],
      "name": "balanceOf",
      "outputs": [
        {
          "internalType": "uint256",
          "name": "",
          "type": "uint256"
        }
      ],
      "stateMutability": "view",
      "type": "function"
    },
    {
      "inputs": [
        {
          "internalType": "address",
          "name": "newOwner",
          "type": "address"
        }
      ],
      "name": "changeOwner",
      "outputs": [
        {
          "internalType": "bool",
          "name": "",
          "type": "bool"
        }
      ],
      "stateMutability": "nonpayable",
      "type": "function"
    },
    {
      "inputs": [
        {
          "internalType": "uint256",
          "name": "tokenId",
          "type": "uint256"
        }
      ],
      "name": "getApproved",
      "outputs": [
        {
          "internalType": "address",
          "name": "",
          "type": "address"
        }
      ],
      "stateMutability": "view",
      "type": "function"
    },
    {
      "inputs": [
        {
          "internalType": "address",
          "name": "owner",
          "type": "address"
        },
        {
          "internalType": "address",
          "name": "operator",
          "type": "address"
        }
      ],
      "name": "isApprovedForAll",
      "outputs": [
        {
          "internalType": "bool",
          "name": "",
          "type": "bool"
        }
      ],
      "stateMutability": "view",
      "type": "function"
    },
    {
      "inputs": [
        {
          "internalType": "address",
          "name": "recipient",
          "type": "address"
        },
        {
          "internalType": "string",
          "name": "tokenURI",
          "type": "string"
        }
      ],
      "name": "mintNFT",
      "outputs": [
        {
          "internalType": "uint256",
          "name": "",
          "type": "uint256"
        }
      ],
      "stateMutability": "nonpayable",
      "type": "function"
    },
    {
      "inputs": [],
      "name": "name",
      "outputs": [
        {
          "internalType": "string",
          "name": "",
          "type": "string"
        }
      ],
      "stateMutability": "view",
      "type": "function"
    },
    {
      "inputs": [],
      "name": "owner",
      "outputs": [
        {
          "internalType": "address",
          "name": "",
          "type": "address"
        }
      ],
      "stateMutability": "view",
      "type": "function"
    },
    {
      "inputs": [
        {
          "internalType": "uint256",
          "name": "tokenId",
          "type": "uint256"
        }
      ],
      "name": "ownerOf",
      "outputs": [
        {
          "internalType": "address",
          "name": "",
          "type": "address"
        }
      ],
      "stateMutability": "view",
      "type": "function"
    },
    {
      "inputs": [],
      "name": "renounceOwnership",
      "outputs": [],
      "stateMutability": "nonpayable",
      "type": "function"
    },
    {
      "inputs": [
        {
          "internalType": "address",
          "name": "from",
          "type": "address"
        },
        {
          "internalType": "address",
          "name": "to",
          "type": "address"
        },
        {
          "internalType": "uint256",
          "name": "tokenId",
          "type": "uint256"
        }
      ],
      "name": "safeTransferFrom",
      "outputs": [],
      "stateMutability": "nonpayable",
      "type": "function"
    },
    {
      "inputs": [
        {
          "internalType": "address",
          "name": "from",
          "type": "address"
        },
        {
          "internalType": "address",
          "name": "to",
          "type": "address"
        },
        {
          "internalType": "uint256",
          "name": "tokenId",
          "type": "uint256"
        },
        {
          "internalType": "bytes",
          "name": "data",
          "type": "bytes"
        }
      ],
      "name": "safeTransferFrom",
      "outputs": [],
      "stateMutability": "nonpayable",
      "type": "function"
    },
    {
      "inputs": [
        {
          "internalType": "address",
          "name": "operator",
          "type": "address"
        },
        {
          "internalType": "bool",
          "name": "approved",
          "type": "bool"
        }
      ],
      "name": "setApprovalForAll",
      "outputs": [],
      "stateMutability": "nonpayable",
      "type": "function"
    },
    {
      "inputs": [
        {
          "internalType": "bytes4",
          "name": "interfaceId",
          "type": "bytes4"
        }
      ],
      "name": "supportsInterface",
      "outputs": [
        {
          "internalType": "bool",
          "name": "",
          "type": "bool"
        }
      ],
      "stateMutability": "view",
      "type": "function"
    },
    {
      "inputs": [],
      "name": "symbol",
      "outputs": [
        {
          "internalType": "string",
          "name": "",
          "type": "string"
        }
      ],
      "stateMutability": "view",
      "type": "function"
    },
    {
      "inputs": [
        {
          "internalType": "uint256",
          "name": "tokenId",
          "type": "uint256"
        }
      ],
      "name": "tokenURI",
      "outputs": [
        {
          "internalType": "string",
          "name": "",
          "type": "string"
        }
      ],
      "stateMutability": "view",
      "type": "function"
    },
    {
      "inputs": [
        {
          "internalType": "address",
          "name": "from",
          "type": "address"
        },
        {
          "internalType": "address",
          "name": "to",
          "type": "address"
        },
        {
          "internalType": "uint256",
          "name": "tokenId",
          "type": "uint256"
        }
      ],
      "name": "transferFrom",
      "outputs": [],
      "stateMutability": "nonpayable",
      "type": "function"
    },
    {
      "inputs": [
        {
          "internalType": "address",
          "name": "newOwner",
          "type": "address"
        }
      ],
      "name": "transferOwnership",
      "outputs": [],
      "stateMutability": "nonpayable",
      "type": "function"
    }
  ],
  "bytecode": "0x60806040523480156200001157600080fd5b5060405162002cd438038062002cd4833981810160405281019062000037919062000288565b806040518060400160405280600681526020017f4d57414e465400000000000000000000000000000000000000000000000000008152506040518060400160405280600381526020017f4d574100000000000000000000000000000000000000000000000000000000008152508160009081620000b5919062000534565b508060019081620000c7919062000534565b505050600073ffffffffffffffffffffffffffffffffffffffff168173ffffffffffffffffffffffffffffffffffffffff16036200013f5760006040517f1e4fbdf70000000000000000000000000000000000000000000000000000000081526004016200013691906200062c565b60405180910390fd5b62000150816200015860201b60201c565b505062000649565b6000600760009054906101000a900473ffffffffffffffffffffffffffffffffffffffff16905081600760006101000a81548173ffffffffffffffffffffffffffffffffffffffff021916908373ffffffffffffffffffffffffffffffffffffffff1602179055508173ffffffffffffffffffffffffffffffffffffffff168173ffffffffffffffffffffffffffffffffffffffff167f8be0079c531659141344cd1fd0a4f28419497f9722a3daafe3b4186f6b6457e060405160405180910390a35050565b600080fd5b600073ffffffffffffffffffffffffffffffffffffffff82169050919050565b6000620002508262000223565b9050919050565b620002628162000243565b81146200026e57600080fd5b50565b600081519050620002828162000257565b92915050565b600060208284031215620002a157620002a06200021e565b5b6000620002b18482850162000271565b91505092915050565b600081519050919050565b7f4e487b7100000000000000000000000000000000000000000000000000000000600052604160045260246000fd5b7f4e487b7100000000000000000000000000000000000000000000000000000000600052602260045260246000fd5b600060028204905060018216806200033c57607f821691505b602082108103620003525762000351620002f4565b5b50919050565b60008190508160005260206000209050919050565b60006020601f8301049050919050565b600082821b905092915050565b600060088302620003bc7fffffffffffffffffffffffffffffffffffffffffffffffffffffffffffffffff826200037d565b620003c886836200037d565b95508019841693508086168417925050509392505050565b6000819050919050565b6000819050919050565b6000620004156200040f6200040984620003e0565b620003ea565b620003e0565b9050919050565b6000819050919050565b6200043183620003f4565b6200044962000440826200041c565b8484546200038a565b825550505050565b600090565b6200046062000451565b6200046d81848462000426565b505050565b5b8181101562000495576200048960008262000456565b60018101905062000473565b5050565b601f821115620004e457620004ae8162000358565b620004b9846200036d565b81016020851015620004c9578190505b620004e1620004d8856200036d565b83018262000472565b50505b505050565b600082821c905092915050565b60006200050960001984600802620004e9565b1980831691505092915050565b6000620005248383620004f6565b9150826002028217905092915050565b6200053f82620002ba565b67ffffffffffffffff8111156200055b576200055a620002c5565b5b62000567825462000323565b6200057482828562000499565b600060209050601f831160018114620005ac576000841562000597578287015190505b620005a3858262000516565b86555062000613565b601f198416620005bc8662000358565b60005b82811015620005e657848901518255600182019150602085019450602081019050620005bf565b8683101562000606578489015162000602601f891682620004f6565b8355505b6001600288020188555050505b505050505050565b620006268162000243565b82525050565b60006020820190506200064360008301846200061b565b92915050565b61267b80620006596000396000f3fe608060405234801561001057600080fd5b50600436106101165760003560e01c80638da5cb5b116100a2578063b88d4fde11610071578063b88d4fde146102df578063c87b56dd146102fb578063e985e9c51461032b578063eacabe141461035b578063f2fde38b1461038b57610116565b80638da5cb5b1461025757806395d89b4114610275578063a22cb46514610293578063a6f9dae1146102af57610116565b806323b872dd116100e957806323b872dd146101b557806342842e0e146101d15780636352211e146101ed57806370a082311461021d578063715018a61461024d57610116565b806301ffc9a71461011b57806306fdde031461014b578063081812fc14610169578063095ea7b314610199575b600080fd5b61013560048036038101906101309190611ae7565b6103a7565b6040516101429190611b2f565b60405180910390f35b610153610408565b6040516101609190611bda565b60405180910390f35b610183600480360381019061017e9190611c32565b61049a565b6040516101909190611ca0565b60405180910390f35b6101b360048036038101906101ae9190611ce7565b6104b6565b005b6101cf60048036038101906101ca9190611d27565b6104cc565b005b6101eb60048036038101906101e69190611d27565b6105ce565b005b61020760048036038101906102029190611c32565b6105ee565b6040516102149190611ca0565b60405180910390f35b61023760048036038101906102329190611d7a565b610600565b6040516102449190611db6565b60405180910390f35b6102556106ba565b005b61025f6106ce565b60405161026c9190611ca0565b60405180910390f35b61027d6106f8565b60405161028a9190611bda565b60405180910390f35b6102ad60048036038101906102a89190611dfd565b61078a565b005b6102c960048036038101906102c49190611d7a565b6107a0565b6040516102d69190611b2f565b60405180910390f35b6102f960048036038101906102f49190611f72565b6107bc565b005b61031560048036038101906103109190611c32565b6107d9565b6040516103229190611bda565b60405180910390f35b61034560048036038101906103409190611ff5565b6108ec565b6040516103529190611b2f565b60405180910390f35b610375600480360381019061037091906120d6565b610980565b6040516103829190611db6565b60405180910390f35b6103a560048036038101906103a09190611d7a565b6109c0565b005b6000634906490660e01b7bffffffffffffffffffffffffffffffffffffffffffffffffffffffff1916827bffffffffffffffffffffffffffffffffffffffffffffffffffffffff19161480610401575061040082610a46565b5b9050919050565b60606000805461041790612161565b80601f016020809104026020016040519081016040528092919081815260200182805461044390612161565b80156104905780601f1061046557610100808354040283529160200191610490565b820191906000526020600020905b81548152906001019060200180831161047357829003601f168201915b5050505050905090565b60006104a582610b28565b506104af82610bb0565b9050919050565b6104c882826104c3610bed565b610bf5565b5050565b600073ffffffffffffffffffffffffffffffffffffffff168273ffffffffffffffffffffffffffffffffffffffff160361053e5760006040517f64a0ae920000000000000000000000000000000000000000000000000000000081526004016105359190611ca0565b60405180910390fd5b6000610552838361054d610bed565b610c07565b90508373ffffffffffffffffffffffffffffffffffffffff168173ffffffffffffffffffffffffffffffffffffffff16146105c8578382826040517f64283d7b0000000000000000000000000000000000000000000000000000000081526004016105bf93929190612192565b60405180910390fd5b50505050565b6105e9838383604051806020016040528060008152506107bc565b505050565b60006105f982610b28565b9050919050565b60008073ffffffffffffffffffffffffffffffffffffffff168273ffffffffffffffffffffffffffffffffffffffff16036106735760006040517f89c62b6400000000000000000000000000000000000000000000000000000000815260040161066a9190611ca0565b60405180910390fd5b600360008373ffffffffffffffffffffffffffffffffffffffff1673ffffffffffffffffffffffffffffffffffffffff168152602001908152602001600020549050919050565b6106c2610e21565b6106cc6000610ea8565b565b6000600760009054906101000a900473ffffffffffffffffffffffffffffffffffffffff16905090565b60606001805461070790612161565b80601f016020809104026020016040519081016040528092919081815260200182805461073390612161565b80156107805780601f1061075557610100808354040283529160200191610780565b820191906000526020600020905b81548152906001019060200180831161076357829003601f168201915b5050505050905090565b61079c610795610bed565b8383610f6e565b5050565b60006107aa610e21565b6107b3826109c0565b60019050919050565b6107c78484846104cc565b6107d3848484846110dd565b50505050565b60606107e482610b28565b50600060066000848152602001908152602001600020805461080590612161565b80601f016020809104026020016040519081016040528092919081815260200182805461083190612161565b801561087e5780601f106108535761010080835404028352916020019161087e565b820191906000526020600020905b81548152906001019060200180831161086157829003601f168201915b50505050509050600061088f611294565b905060008151036108a45781925050506108e7565b6000825111156108d95780826040516020016108c1929190612205565b604051602081830303815290604052925050506108e7565b6108e2846112ab565b925050505b919050565b6000600560008473ffffffffffffffffffffffffffffffffffffffff1673ffffffffffffffffffffffffffffffffffffffff16815260200190815260200160002060008373ffffffffffffffffffffffffffffffffffffffff1673ffffffffffffffffffffffffffffffffffffffff16815260200190815260200160002060009054906101000a900460ff16905092915050565b60008060085490506109928482611314565b61099c818461140d565b6001600860008282546109af9190612258565b925050819055508091505092915050565b6109c8610e21565b600073ffffffffffffffffffffffffffffffffffffffff168173ffffffffffffffffffffffffffffffffffffffff1603610a3a5760006040517f1e4fbdf7000000000000000000000000000000000000000000000000000000008152600401610a319190611ca0565b60405180910390fd5b610a4381610ea8565b50565b60007f80ac58cd000000000000000000000000000000000000000000000000000000007bffffffffffffffffffffffffffffffffffffffffffffffffffffffff1916827bffffffffffffffffffffffffffffffffffffffffffffffffffffffff19161480610b1157507f5b5e139f000000000000000000000000000000000000000000000000000000007bffffffffffffffffffffffffffffffffffffffffffffffffffffffff1916827bffffffffffffffffffffffffffffffffffffffffffffffffffffffff1916145b80610b215750610b2082611469565b5b9050919050565b600080610b34836114d3565b9050600073ffffffffffffffffffffffffffffffffffffffff168173ffffffffffffffffffffffffffffffffffffffff1603610ba757826040517f7e273289000000000000000000000000000000000000000000000000000000008152600401610b9e9190611db6565b60405180910390fd5b80915050919050565b60006004600083815260200190815260200160002060009054906101000a900473ffffffffffffffffffffffffffffffffffffffff169050919050565b600033905090565b610c028383836001611510565b505050565b600080610c13846114d3565b9050600073ffffffffffffffffffffffffffffffffffffffff168373ffffffffffffffffffffffffffffffffffffffff1614610c5557610c548184866116d5565b5b600073ffffffffffffffffffffffffffffffffffffffff168173ffffffffffffffffffffffffffffffffffffffff1614610ce657610c97600085600080611510565b6001600360008373ffffffffffffffffffffffffffffffffffffffff1673ffffffffffffffffffffffffffffffffffffffff168152602001908152602001600020600082825403925050819055505b600073ffffffffffffffffffffffffffffffffffffffff168573ffffffffffffffffffffffffffffffffffffffff1614610d69576001600360008773ffffffffffffffffffffffffffffffffffffffff1673ffffffffffffffffffffffffffffffffffffffff168152602001908152602001600020600082825401925050819055505b846002600086815260200190815260200160002060006101000a81548173ffffffffffffffffffffffffffffffffffffffff021916908373ffffffffffffffffffffffffffffffffffffffff160217905550838573ffffffffffffffffffffffffffffffffffffffff168273ffffffffffffffffffffffffffffffffffffffff167fddf252ad1be2c89b69c2b068fc378daa952ba7f163c4a11628f55a4df523b3ef60405160405180910390a4809150509392505050565b610e29610bed565b73ffffffffffffffffffffffffffffffffffffffff16610e476106ce565b73ffffffffffffffffffffffffffffffffffffffff1614610ea657610e6a610bed565b6040517f118cdaa7000000000000000000000000000000000000000000000000000000008152600401610e9d9190611ca0565b60405180910390fd5b565b6000600760009054906101000a900473ffffffffffffffffffffffffffffffffffffffff16905081600760006101000a81548173ffffffffffffffffffffffffffffffffffffffff021916908373ffffffffffffffffffffffffffffffffffffffff1602179055508173ffffffffffffffffffffffffffffffffffffffff168173ffffffffffffffffffffffffffffffffffffffff167f8be0079c531659141344cd1fd0a4f28419497f9722a3daafe3b4186f6b6457e060405160405180910390a35050565b600073ffffffffffffffffffffffffffffffffffffffff168273ffffffffffffffffffffffffffffffffffffffff1603610fdf57816040517f5b08ba18000000000000000000000000000000000000000000000000000000008152600401610fd69190611ca0565b60405180910390fd5b80600560008573ffffffffffffffffffffffffffffffffffffffff1673ffffffffffffffffffffffffffffffffffffffff16815260200190815260200160002060008473ffffffffffffffffffffffffffffffffffffffff1673ffffffffffffffffffffffffffffffffffffffff16815260200190815260200160002060006101000a81548160ff0219169083151502179055508173ffffffffffffffffffffffffffffffffffffffff168373ffffffffffffffffffffffffffffffffffffffff167f17307eab39ab6107e8899845ad3d59bd9653f200f220920489ca2b5937696c31836040516110d09190611b2f565b60405180910390a3505050565b60008373ffffffffffffffffffffffffffffffffffffffff163b111561128e578273ffffffffffffffffffffffffffffffffffffffff1663150b7a02611121610bed565b8685856040518563ffffffff1660e01b815260040161114394939291906122e1565b6020604051808303816000875af192505050801561117f57506040513d601f19601f8201168201806040525081019061117c9190612342565b60015b611203573d80600081146111af576040519150601f19603f3d011682016040523d82523d6000602084013e6111b4565b606091505b5060008151036111fb57836040517f64a0ae920000000000000000000000000000000000000000000000000000000081526004016111f29190611ca0565b60405180910390fd5b805181602001fd5b63150b7a0260e01b7bffffffffffffffffffffffffffffffffffffffffffffffffffffffff1916817bffffffffffffffffffffffffffffffffffffffffffffffffffffffff19161461128c57836040517f64a0ae920000000000000000000000000000000000000000000000000000000081526004016112839190611ca0565b60405180910390fd5b505b50505050565b606060405180602001604052806000815250905090565b60606112b682610b28565b5060006112c1611294565b905060008151116112e1576040518060200160405280600081525061130c565b806112eb84611799565b6040516020016112fc929190612205565b6040516020818303038152906040525b915050919050565b600073ffffffffffffffffffffffffffffffffffffffff168273ffffffffffffffffffffffffffffffffffffffff16036113865760006040517f64a0ae9200000000000000000000000000000000000000000000000000000000815260040161137d9190611ca0565b60405180910390fd5b600061139483836000610c07565b9050600073ffffffffffffffffffffffffffffffffffffffff168173ffffffffffffffffffffffffffffffffffffffff16146114085760006040517f73c6ac6e0000000000000000000000000000000000000000000000000000000081526004016113ff9190611ca0565b60405180910390fd5b505050565b8060066000848152602001908152602001600020908161142d919061251b565b507ff8e1a15aba9398e019f0b49df1a4fde98ee17ae345cb5f6b5e2c27f5033e8ce78260405161145d9190611db6565b60405180910390a15050565b60007f01ffc9a7000000000000000000000000000000000000000000000000000000007bffffffffffffffffffffffffffffffffffffffffffffffffffffffff1916827bffffffffffffffffffffffffffffffffffffffffffffffffffffffff1916149050919050565b60006002600083815260200190815260200160002060009054906101000a900473ffffffffffffffffffffffffffffffffffffffff169050919050565b80806115495750600073ffffffffffffffffffffffffffffffffffffffff168273ffffffffffffffffffffffffffffffffffffffff1614155b1561167d57600061155984610b28565b9050600073ffffffffffffffffffffffffffffffffffffffff168373ffffffffffffffffffffffffffffffffffffffff16141580156115c457508273ffffffffffffffffffffffffffffffffffffffff168173ffffffffffffffffffffffffffffffffffffffff1614155b80156115d757506115d581846108ec565b155b1561161957826040517fa9fbf51f0000000000000000000000000000000000000000000000000000000081526004016116109190611ca0565b60405180910390fd5b811561167b57838573ffffffffffffffffffffffffffffffffffffffff168273ffffffffffffffffffffffffffffffffffffffff167f8c5be1e5ebec7d5bd14f71427d1e84f3dd0314c0f7b2291e5b200ac8c7c3b92560405160405180910390a45b505b836004600085815260200190815260200160002060006101000a81548173ffffffffffffffffffffffffffffffffffffffff021916908373ffffffffffffffffffffffffffffffffffffffff16021790555050505050565b6116e0838383611867565b61179457600073ffffffffffffffffffffffffffffffffffffffff168373ffffffffffffffffffffffffffffffffffffffff160361175557806040517f7e27328900000000000000000000000000000000000000000000000000000000815260040161174c9190611db6565b60405180910390fd5b81816040517f177e802f00000000000000000000000000000000000000000000000000000000815260040161178b9291906125ed565b60405180910390fd5b505050565b6060600060016117a884611928565b01905060008167ffffffffffffffff8111156117c7576117c6611e47565b5b6040519080825280601f01601f1916602001820160405280156117f95781602001600182028036833780820191505090505b509050600082602001820190505b60011561185c578080600190039150507f3031323334353637383961626364656600000000000000000000000000000000600a86061a8153600a85816118505761184f612616565b5b04945060008503611807575b819350505050919050565b60008073ffffffffffffffffffffffffffffffffffffffff168373ffffffffffffffffffffffffffffffffffffffff161415801561191f57508273ffffffffffffffffffffffffffffffffffffffff168473ffffffffffffffffffffffffffffffffffffffff1614806118e057506118df84846108ec565b5b8061191e57508273ffffffffffffffffffffffffffffffffffffffff1661190683610bb0565b73ffffffffffffffffffffffffffffffffffffffff16145b5b90509392505050565b600080600090507a184f03e93ff9f4daa797ed6e38ed64bf6a1f0100000000000000008310611986577a184f03e93ff9f4daa797ed6e38ed64bf6a1f010000000000000000838161197c5761197b612616565b5b0492506040810190505b6d04ee2d6d415b85acef810000000083106119c3576d04ee2d6d415b85acef810000000083816119b9576119b8612616565b5b0492506020810190505b662386f26fc1000083106119f257662386f26fc1000083816119e8576119e7612616565b5b0492506010810190505b6305f5e1008310611a1b576305f5e1008381611a1157611a10612616565b5b0492506008810190505b6127108310611a40576127108381611a3657611a35612616565b5b0492506004810190505b60648310611a635760648381611a5957611a58612616565b5b0492506002810190505b600a8310611a72576001810190505b80915050919050565b6000604051905090565b600080fd5b600080fd5b60007fffffffff0000000000000000000000000000000000000000000000000000000082169050919050565b611ac481611a8f565b8114611acf57600080fd5b50565b600081359050611ae181611abb565b92915050565b600060208284031215611afd57611afc611a85565b5b6000611b0b84828501611ad2565b91505092915050565b60008115159050919050565b611b2981611b14565b82525050565b6000602082019050611b446000830184611b20565b92915050565b600081519050919050565b600082825260208201905092915050565b60005b83811015611b84578082015181840152602081019050611b69565b60008484015250505050565b6000601f19601f8301169050919050565b6000611bac82611b4a565b611bb68185611b55565b9350611bc6818560208601611b66565b611bcf81611b90565b840191505092915050565b60006020820190508181036000830152611bf48184611ba1565b905092915050565b6000819050919050565b611c0f81611bfc565b8114611c1a57600080fd5b50565b600081359050611c2c81611c06565b92915050565b600060208284031215611c4857611c47611a85565b5b6000611c5684828501611c1d565b91505092915050565b600073ffffffffffffffffffffffffffffffffffffffff82169050919050565b6000611c8a82611c5f565b9050919050565b611c9a81611c7f565b82525050565b6000602082019050611cb56000830184611c91565b92915050565b611cc481611c7f565b8114611ccf57600080fd5b50565b600081359050611ce181611cbb565b92915050565b60008060408385031215611cfe57611cfd611a85565b5b6000611d0c85828601611cd2565b9250506020611d1d85828601611c1d565b9150509250929050565b600080600060608486031215611d4057611d3f611a85565b5b6000611d4e86828701611cd2565b9350506020611d5f86828701611cd2565b9250506040611d7086828701611c1d565b9150509250925092565b600060208284031215611d9057611d8f611a85565b5b6000611d9e84828501611cd2565b91505092915050565b611db081611bfc565b82525050565b6000602082019050611dcb6000830184611da7565b92915050565b611dda81611b14565b8114611de557600080fd5b50565b600081359050611df781611dd1565b92915050565b60008060408385031215611e1457611e13611a85565b5b6000611e2285828601611cd2565b9250506020611e3385828601611de8565b9150509250929050565b600080fd5b600080fd5b7f4e487b7100000000000000000000000000000000000000000000000000000000600052604160045260246000fd5b611e7f82611b90565b810181811067ffffffffffffffff82111715611e9e57611e9d611e47565b5b80604052505050565b6000611eb1611a7b565b9050611ebd8282611e76565b919050565b600067ffffffffffffffff821115611edd57611edc611e47565b5b611ee682611b90565b9050602081019050919050565b82818337600083830152505050565b6000611f15611f1084611ec2565b611ea7565b905082815260208101848484011115611f3157611f30611e42565b5b611f3c848285611ef3565b509392505050565b600082601f830112611f5957611f58611e3d565b5b8135611f69848260208601611f02565b91505092915050565b60008060008060808587031215611f8c57611f8b611a85565b5b6000611f9a87828801611cd2565b9450506020611fab87828801611cd2565b9350506040611fbc87828801611c1d565b925050606085013567ffffffffffffffff811115611fdd57611fdc611a8a565b5b611fe987828801611f44565b91505092959194509250565b6000806040838503121561200c5761200b611a85565b5b600061201a85828601611cd2565b925050602061202b85828601611cd2565b9150509250929050565b600067ffffffffffffffff8211156120505761204f611e47565b5b61205982611b90565b9050602081019050919050565b600061207961207484612035565b611ea7565b90508281526020810184848401111561209557612094611e42565b5b6120a0848285611ef3565b509392505050565b600082601f8301126120bd576120bc611e3d565b5b81356120cd848260208601612066565b91505092915050565b600080604083850312156120ed576120ec611a85565b5b60006120fb85828601611cd2565b925050602083013567ffffffffffffffff81111561211c5761211b611a8a565b5b612128858286016120a8565b9150509250929050565b7f4e487b7100000000000000000000000000000000000000000000000000000000600052602260045260246000fd5b6000600282049050600182168061217957607f821691505b60208210810361218c5761218b612132565b5b50919050565b60006060820190506121a76000830186611c91565b6121b46020830185611da7565b6121c16040830184611c91565b949350505050565b600081905092915050565b60006121df82611b4a565b6121e981856121c9565b93506121f9818560208601611b66565b80840191505092915050565b600061221182856121d4565b915061221d82846121d4565b91508190509392505050565b7f4e487b7100000000000000000000000000000000000000000000000000000000600052601160045260246000fd5b600061226382611bfc565b915061226e83611bfc565b925082820190508082111561228657612285612229565b5b92915050565b600081519050919050565b600082825260208201905092915050565b60006122b38261228c565b6122bd8185612297565b93506122cd818560208601611b66565b6122d681611b90565b840191505092915050565b60006080820190506122f66000830187611c91565b6123036020830186611c91565b6123106040830185611da7565b818103606083015261232281846122a8565b905095945050505050565b60008151905061233c81611abb565b92915050565b60006020828403121561235857612357611a85565b5b60006123668482850161232d565b91505092915050565b60008190508160005260206000209050919050565b60006020601f8301049050919050565b600082821b905092915050565b6000600883026123d17fffffffffffffffffffffffffffffffffffffffffffffffffffffffffffffffff82612394565b6123db8683612394565b95508019841693508086168417925050509392505050565b6000819050919050565b600061241861241361240e84611bfc565b6123f3565b611bfc565b9050919050565b6000819050919050565b612432836123fd565b61244661243e8261241f565b8484546123a1565b825550505050565b600090565b61245b61244e565b612466818484612429565b505050565b5b8181101561248a5761247f600082612453565b60018101905061246c565b5050565b601f8211156124cf576124a08161236f565b6124a984612384565b810160208510156124b8578190505b6124cc6124c485612384565b83018261246b565b50505b505050565b600082821c905092915050565b60006124f2600019846008026124d4565b1980831691505092915050565b600061250b83836124e1565b9150826002028217905092915050565b61252482611b4a565b67ffffffffffffffff81111561253d5761253c611e47565b5b6125478254612161565b61255282828561248e565b600060209050601f8311600181146125855760008415612573578287015190505b61257d85826124ff565b8655506125e5565b601f1984166125938661236f565b60005b828110156125bb57848901518255600182019150602085019450602081019050612596565b868310156125d857848901516125d4601f8916826124e1565b8355505b6001600288020188555050505b505050505050565b60006040820190506126026000830185611c91565b61260f6020830184611da7565b9392505050565b7f4e487b7100000000000000000000000000000000000000000000000000000000600052601260045260246000fdfea264697066735822122004a20f637beef8dada5376f46ddfd7790964d0f2d1ca0e8a3e48490449f0d91564736f6c63430008140033",
  "linkReferences": {},
  "deployedLinkReferences": {}
}