{
  "_format": "hh-sol-artifact-1",
  "contractName": "MWANFT",
  "sourceName": "contracts/MWANFT.sol",
  "abi": [
    {
      "inputs": [
        {
          "internalType": "address",
          "name": "initialOwner",
          "type": "address"
        }
      ],
      "stateMutability": "nonpayable",
      "type": "constructor"
    },
    {
      "inputs": [
        {
          "internalType": "address",
          "name": "sender",
          "type": "address"
        },
        {
          "internalType": "uint256",
          "name": "tokenId",
          "type": "uint256"
        },
        {
          "internalType": "address",
          "name": "owner",
          "type": "address"
        }
      ],
      "name": "ERC721IncorrectOwner",
      "type": "error"
    },
    {
      "inputs": [
        {
          "internalType": "address",
          "name": "operator",
          "type": "address"
        },
        {
          "internalType": "uint256",
          "name": "tokenId",
          "type": "uint256"
        }
      ],
      "name": "ERC721InsufficientApproval",
      "type": "error"
    },
    {
      "inputs": [
        {
          "internalType": "address",
          "name": "approver",
          "type": "address"
        }
      ],
      "name": "ERC721InvalidApprover",
      "type": "error"
    },
    {
      "inputs": [
        {
          "internalType": "address",
          "name": "operator",
          "type": "address"
        }
      ],
      "name": "ERC721InvalidOperator",
      "type": "error"
    },
    {
      "inputs": [
        {
          "internalType": "address",
          "name": "owner",
          "type": "address"
        }
      ],
      "name": "ERC721InvalidOwner",
      "type": "error"
    },
    {
      "inputs": [
        {
          "internalType": "address",
          "name": "receiver",
          "type": "address"
        }
      ],
      "name": "ERC721InvalidReceiver",
      "type": "error"
    },
    {
      "inputs": [
        {
          "internalType": "address",
          "name": "sender",
          "type": "address"
        }
      ],
      "name": "ERC721InvalidSender",
      "type": "error"
    },
    {
      "inputs": [
        {
          "internalType": "uint256",
          "name": "tokenId",
          "type": "uint256"
        }
      ],
      "name": "ERC721NonexistentToken",
      "type": "error"
    },
    {
      "inputs": [
        {
          "internalType": "address",
          "name": "owner",
          "type": "address"
        }
      ],
      "name": "OwnableInvalidOwner",
      "type": "error"
    },
    {
      "inputs": [
        {
          "internalType": "address",
          "name": "account",
          "type": "address"
        }
      ],
      "name": "OwnableUnauthorizedAccount",
      "type": "error"
    },
    {
      "anonymous": false,
      "inputs": [
        {
          "indexed": true,
          "internalType": "address",
          "name": "owner",
          "type": "address"
        },
        {
          "indexed": true,
          "internalType": "address",
          "name": "approved",
          "type": "address"
        },
        {
          "indexed": true,
          "internalType": "uint256",
          "name": "tokenId",
          "type": "uint256"
        }
      ],
      "name": "Approval",
      "type": "event"
    },
    {
      "anonymous": false,
      "inputs": [
        {
          "indexed": true,
          "internalType": "address",
          "name": "owner",
          "type": "address"
        },
        {
          "indexed": true,
          "internalType": "address",
          "name": "operator",
          "type": "address"
        },
        {
          "indexed": false,
          "internalType": "bool",
          "name": "approved",
          "type": "bool"
        }
      ],
      "name": "ApprovalForAll",
      "type": "event"
    },
    {
      "anonymous": false,
      "inputs": [
        {
          "indexed": false,
          "internalType": "uint256",
          "name": "_fromTokenId",
          "type": "uint256"
        },
        {
          "indexed": false,
          "internalType": "uint256",
          "name": "_toTokenId",
          "type": "uint256"
        }
      ],
      "name": "BatchMetadataUpdate",
      "type": "event"
    },
    {
      "anonymous": false,
      "inputs": [
        {
          "indexed": false,
          "internalType": "uint256",
          "name": "_tokenId",
          "type": "uint256"
        }
      ],
      "name": "MetadataUpdate",
      "type": "event"
    },
    {
      "anonymous": false,
      "inputs": [
        {
          "indexed": true,
          "internalType": "address",
          "name": "previousOwner",
          "type": "address"
        },
        {
          "indexed": true,
          "internalType": "address",
          "name": "newOwner",
          "type": "address"
        }
      ],
      "name": "OwnershipTransferred",
      "type": "event"
    },
    {
      "anonymous": false,
      "inputs": [
        {
          "indexed": true,
          "internalType": "address",
          "name": "from",
          "type": "address"
        },
        {
          "indexed": true,
          "internalType": "address",
          "name": "to",
          "type": "address"
        },
        {
          "indexed": true,
          "internalType": "uint256",
          "name": "tokenId",
          "type": "uint256"
        }
      ],
      "name": "Transfer",
      "type": "event"
    },
    {
      "inputs": [
        {
          "internalType": "address",
          "name": "to",
          "type": "address"
        },
        {
          "internalType": "uint256",
          "name": "tokenId",
          "type": "uint256"
        }
      ],
      "name": "approve",
      "outputs": [],
      "stateMutability": "nonpayable",
      "type": "function"
    },
    {
      "inputs": [
        {
          "internalType": "address",
          "name": "owner",
          "type": "address"
        }
      ],
      "name": "balanceOf",
      "outputs": [
        {
          "internalType": "uint256",
          "name": "",
          "type": "uint256"
        }
      ],
      "stateMutability": "view",
      "type": "function"
    },
    {
      "inputs": [
        {
          "internalType": "uint256",
          "name": "tokenId",
          "type": "uint256"
        }
      ],
      "name": "burn",
      "outputs": [],
      "stateMutability": "nonpayable",
      "type": "function"
    },
    {
      "inputs": [
        {
          "internalType": "address",
          "name": "newOwner",
          "type": "address"
        }
      ],
      "name": "changeOwner",
      "outputs": [
        {
          "internalType": "bool",
          "name": "",
          "type": "bool"
        }
      ],
      "stateMutability": "nonpayable",
      "type": "function"
    },
    {
      "inputs": [
        {
          "internalType": "uint256",
          "name": "tokenId",
          "type": "uint256"
        }
      ],
      "name": "getApproved",
      "outputs": [
        {
          "internalType": "address",
          "name": "",
          "type": "address"
        }
      ],
      "stateMutability": "view",
      "type": "function"
    },
    {
      "inputs": [],
      "name": "getCBalance",
      "outputs": [
        {
          "internalType": "uint256",
          "name": "",
          "type": "uint256"
        }
      ],
      "stateMutability": "view",
      "type": "function"
    },
    {
      "inputs": [
        {
          "internalType": "address",
          "name": "owner",
          "type": "address"
        },
        {
          "internalType": "address",
          "name": "operator",
          "type": "address"
        }
      ],
      "name": "isApprovedForAll",
      "outputs": [
        {
          "internalType": "bool",
          "name": "",
          "type": "bool"
        }
      ],
      "stateMutability": "view",
      "type": "function"
    },
    {
      "inputs": [
        {
          "internalType": "address",
          "name": "recipient",
          "type": "address"
        },
        {
          "internalType": "string",
          "name": "tokenURI",
          "type": "string"
        }
      ],
      "name": "mintNFT",
      "outputs": [
        {
          "internalType": "uint256",
          "name": "",
          "type": "uint256"
        }
      ],
      "stateMutability": "payable",
      "type": "function"
    },
    {
      "inputs": [],
      "name": "mintPrice",
      "outputs": [
        {
          "internalType": "uint256",
          "name": "",
          "type": "uint256"
        }
      ],
      "stateMutability": "view",
      "type": "function"
    },
    {
      "inputs": [],
      "name": "name",
      "outputs": [
        {
          "internalType": "string",
          "name": "",
          "type": "string"
        }
      ],
      "stateMutability": "view",
      "type": "function"
    },
    {
      "inputs": [],
      "name": "owner",
      "outputs": [
        {
          "internalType": "address",
          "name": "",
          "type": "address"
        }
      ],
      "stateMutability": "view",
      "type": "function"
    },
    {
      "inputs": [
        {
          "internalType": "uint256",
          "name": "tokenId",
          "type": "uint256"
        }
      ],
      "name": "ownerOf",
      "outputs": [
        {
          "internalType": "address",
          "name": "",
          "type": "address"
        }
      ],
      "stateMutability": "view",
      "type": "function"
    },
    {
      "inputs": [],
      "name": "renounceOwnership",
      "outputs": [],
      "stateMutability": "nonpayable",
      "type": "function"
    },
    {
      "inputs": [
        {
          "internalType": "address",
          "name": "from",
          "type": "address"
        },
        {
          "internalType": "address",
          "name": "to",
          "type": "address"
        },
        {
          "internalType": "uint256",
          "name": "tokenId",
          "type": "uint256"
        }
      ],
      "name": "safeTransferFrom",
      "outputs": [],
      "stateMutability": "nonpayable",
      "type": "function"
    },
    {
      "inputs": [
        {
          "internalType": "address",
          "name": "from",
          "type": "address"
        },
        {
          "internalType": "address",
          "name": "to",
          "type": "address"
        },
        {
          "internalType": "uint256",
          "name": "tokenId",
          "type": "uint256"
        },
        {
          "internalType": "bytes",
          "name": "data",
          "type": "bytes"
        }
      ],
      "name": "safeTransferFrom",
      "outputs": [],
      "stateMutability": "nonpayable",
      "type": "function"
    },
    {
      "inputs": [
        {
          "internalType": "address",
          "name": "operator",
          "type": "address"
        },
        {
          "internalType": "bool",
          "name": "approved",
          "type": "bool"
        }
      ],
      "name": "setApprovalForAll",
      "outputs": [],
      "stateMutability": "nonpayable",
      "type": "function"
    },
    {
      "inputs": [],
      "name": "supply",
      "outputs": [
        {
          "internalType": "uint256",
          "name": "",
          "type": "uint256"
        }
      ],
      "stateMutability": "view",
      "type": "function"
    },
    {
      "inputs": [
        {
          "internalType": "bytes4",
          "name": "interfaceId",
          "type": "bytes4"
        }
      ],
      "name": "supportsInterface",
      "outputs": [
        {
          "internalType": "bool",
          "name": "",
          "type": "bool"
        }
      ],
      "stateMutability": "view",
      "type": "function"
    },
    {
      "inputs": [],
      "name": "symbol",
      "outputs": [
        {
          "internalType": "string",
          "name": "",
          "type": "string"
        }
      ],
      "stateMutability": "view",
      "type": "function"
    },
    {
      "inputs": [
        {
          "internalType": "uint256",
          "name": "tokenId",
          "type": "uint256"
        }
      ],
      "name": "tokenURI",
      "outputs": [
        {
          "internalType": "string",
          "name": "",
          "type": "string"
        }
      ],
      "stateMutability": "view",
      "type": "function"
    },
    {
      "inputs": [
        {
          "internalType": "address",
          "name": "from",
          "type": "address"
        },
        {
          "internalType": "address",
          "name": "to",
          "type": "address"
        },
        {
          "internalType": "uint256",
          "name": "tokenId",
          "type": "uint256"
        }
      ],
      "name": "transferFrom",
      "outputs": [],
      "stateMutability": "nonpayable",
      "type": "function"
    },
    {
      "inputs": [
        {
          "internalType": "address",
          "name": "newOwner",
          "type": "address"
        }
      ],
      "name": "transferOwnership",
      "outputs": [],
      "stateMutability": "nonpayable",
      "type": "function"
    },
    {
      "inputs": [],
      "name": "withdraw",
      "outputs": [
        {
          "internalType": "bool",
          "name": "",
          "type": "bool"
        }
      ],
      "stateMutability": "payable",
      "type": "function"
    }
  ],
  "bytecode": "0x60806040523480156200001157600080fd5b50604051620035ac380380620035ac833981810160405281019062000037919062000288565b806040518060400160405280600681526020017f4d57414e465400000000000000000000000000000000000000000000000000008152506040518060400160405280600381526020017f4d574100000000000000000000000000000000000000000000000000000000008152508160009081620000b5919062000534565b508060019081620000c7919062000534565b505050600073ffffffffffffffffffffffffffffffffffffffff168173ffffffffffffffffffffffffffffffffffffffff16036200013f5760006040517f1e4fbdf70000000000000000000000000000000000000000000000000000000081526004016200013691906200062c565b60405180910390fd5b62000150816200015860201b60201c565b505062000649565b6000600760009054906101000a900473ffffffffffffffffffffffffffffffffffffffff16905081600760006101000a81548173ffffffffffffffffffffffffffffffffffffffff021916908373ffffffffffffffffffffffffffffffffffffffff1602179055508173ffffffffffffffffffffffffffffffffffffffff168173ffffffffffffffffffffffffffffffffffffffff167f8be0079c531659141344cd1fd0a4f28419497f9722a3daafe3b4186f6b6457e060405160405180910390a35050565b600080fd5b600073ffffffffffffffffffffffffffffffffffffffff82169050919050565b6000620002508262000223565b9050919050565b620002628162000243565b81146200026e57600080fd5b50565b600081519050620002828162000257565b92915050565b600060208284031215620002a157620002a06200021e565b5b6000620002b18482850162000271565b91505092915050565b600081519050919050565b7f4e487b7100000000000000000000000000000000000000000000000000000000600052604160045260246000fd5b7f4e487b7100000000000000000000000000000000000000000000000000000000600052602260045260246000fd5b600060028204905060018216806200033c57607f821691505b602082108103620003525762000351620002f4565b5b50919050565b60008190508160005260206000209050919050565b60006020601f8301049050919050565b600082821b905092915050565b600060088302620003bc7fffffffffffffffffffffffffffffffffffffffffffffffffffffffffffffffff826200037d565b620003c886836200037d565b95508019841693508086168417925050509392505050565b6000819050919050565b6000819050919050565b6000620004156200040f6200040984620003e0565b620003ea565b620003e0565b9050919050565b6000819050919050565b6200043183620003f4565b6200044962000440826200041c565b8484546200038a565b825550505050565b600090565b6200046062000451565b6200046d81848462000426565b505050565b5b8181101562000495576200048960008262000456565b60018101905062000473565b5050565b601f821115620004e457620004ae8162000358565b620004b9846200036d565b81016020851015620004c9578190505b620004e1620004d8856200036d565b83018262000472565b50505b505050565b600082821c905092915050565b60006200050960001984600802620004e9565b1980831691505092915050565b6000620005248383620004f6565b9150826002028217905092915050565b6200053f82620002ba565b67ffffffffffffffff8111156200055b576200055a620002c5565b5b62000567825462000323565b6200057482828562000499565b600060209050601f831160018114620005ac576000841562000597578287015190505b620005a3858262000516565b86555062000613565b601f198416620005bc8662000358565b60005b82811015620005e657848901518255600182019150602085019450602081019050620005bf565b8683101562000606578489015162000602601f891682620004f6565b8355505b6001600288020188555050505b505050505050565b620006268162000243565b82525050565b60006020820190506200064360008301846200061b565b92915050565b612f5380620006596000396000f3fe6080604052600436106101405760003560e01c80636817c76c116100b6578063a6f9dae11161006f578063a6f9dae11461043d578063b88d4fde1461047a578063c87b56dd146104a3578063e985e9c5146104e0578063eacabe141461051d578063f2fde38b1461054d57610140565b80636817c76c1461033f57806370a082311461036a578063715018a6146103a75780638da5cb5b146103be57806395d89b41146103e9578063a22cb4651461041457610140565b806323b872dd1161010857806323b872dd1461023e5780633ccfd60b1461026757806342842e0e1461028557806342966c68146102ae57806344a6da72146102d75780636352211e1461030257610140565b806301ffc9a714610145578063047fc9aa1461018257806306fdde03146101ad578063081812fc146101d8578063095ea7b314610215575b600080fd5b34801561015157600080fd5b5061016c600480360381019061016791906120a5565b610576565b60405161017991906120ed565b60405180910390f35b34801561018e57600080fd5b506101976105d7565b6040516101a49190612121565b60405180910390f35b3480156101b957600080fd5b506101c26105dc565b6040516101cf91906121cc565b60405180910390f35b3480156101e457600080fd5b506101ff60048036038101906101fa919061221a565b61066e565b60405161020c9190612288565b60405180910390f35b34801561022157600080fd5b5061023c600480360381019061023791906122cf565b61068a565b005b34801561024a57600080fd5b506102656004803603810190610260919061230f565b6106a0565b005b61026f61071f565b60405161027c91906120ed565b60405180910390f35b34801561029157600080fd5b506102ac60048036038101906102a7919061230f565b610859565b005b3480156102ba57600080fd5b506102d560048036038101906102d0919061221a565b610879565b005b3480156102e357600080fd5b506102ec6108fb565b6040516102f99190612121565b60405180910390f35b34801561030e57600080fd5b506103296004803603810190610324919061221a565b61090b565b6040516103369190612288565b60405180910390f35b34801561034b57600080fd5b5061035461091d565b6040516103619190612121565b60405180910390f35b34801561037657600080fd5b50610391600480360381019061038c9190612362565b610928565b60405161039e9190612121565b60405180910390f35b3480156103b357600080fd5b506103bc6109e2565b005b3480156103ca57600080fd5b506103d36109f6565b6040516103e09190612288565b60405180910390f35b3480156103f557600080fd5b506103fe610a20565b60405161040b91906121cc565b60405180910390f35b34801561042057600080fd5b5061043b600480360381019061043691906123bb565b610ab2565b005b34801561044957600080fd5b50610464600480360381019061045f9190612362565b610ac8565b60405161047191906120ed565b60405180910390f35b34801561048657600080fd5b506104a1600480360381019061049c9190612530565b610ae4565b005b3480156104af57600080fd5b506104ca60048036038101906104c5919061221a565b610b65565b6040516104d791906121cc565b60405180910390f35b3480156104ec57600080fd5b50610507600480360381019061050291906125b3565b610c78565b60405161051491906120ed565b60405180910390f35b61053760048036038101906105329190612694565b610d0c565b6040516105449190612121565b60405180910390f35b34801561055957600080fd5b50610574600480360381019061056f9190612362565b610dd9565b005b6000634906490660e01b7bffffffffffffffffffffffffffffffffffffffffffffffffffffffff1916827bffffffffffffffffffffffffffffffffffffffffffffffffffffffff191614806105d057506105cf82610e5f565b5b9050919050565b606481565b6060600080546105eb9061271f565b80601f01602080910402602001604051908101604052809291908181526020018280546106179061271f565b80156106645780601f1061063957610100808354040283529160200191610664565b820191906000526020600020905b81548152906001019060200180831161064757829003601f168201915b5050505050905090565b600061067982610f41565b5061068382610fc9565b9050919050565b61069c8282610697611006565b61100e565b5050565b600073ffffffffffffffffffffffffffffffffffffffff168373ffffffffffffffffffffffffffffffffffffffff161461070f576040517f08c379a0000000000000000000000000000000000000000000000000000000008152600401610706906127c2565b60405180910390fd5b61071a838383611020565b505050565b6000610729611122565b6107316109f6565b73ffffffffffffffffffffffffffffffffffffffff163373ffffffffffffffffffffffffffffffffffffffff161461079e576040517f08c379a00000000000000000000000000000000000000000000000000000000081526004016107959061282e565b60405180910390fd5b60006107a86109f6565b73ffffffffffffffffffffffffffffffffffffffff16476040516107cb9061287f565b60006040518083038185875af1925050503d8060008114610808576040519150601f19603f3d011682016040523d82523d6000602084013e61080d565b606091505b5050905080610851576040517f08c379a0000000000000000000000000000000000000000000000000000000008152600401610848906128e0565b60405180910390fd5b600191505090565b61087483838360405180602001604052806000815250610ae4565b505050565b3373ffffffffffffffffffffffffffffffffffffffff166108998261090b565b73ffffffffffffffffffffffffffffffffffffffff16146108ef576040517f08c379a00000000000000000000000000000000000000000000000000000000081526004016108e690612972565b60405180910390fd5b6108f8816111a9565b50565b6000610905611122565b47905090565b600061091682610f41565b9050919050565b66470de4df82000081565b60008073ffffffffffffffffffffffffffffffffffffffff168273ffffffffffffffffffffffffffffffffffffffff160361099b5760006040517f89c62b640000000000000000000000000000000000000000000000000000000081526004016109929190612288565b60405180910390fd5b600360008373ffffffffffffffffffffffffffffffffffffffff1673ffffffffffffffffffffffffffffffffffffffff168152602001908152602001600020549050919050565b6109ea611122565b6109f4600061122f565b565b6000600760009054906101000a900473ffffffffffffffffffffffffffffffffffffffff16905090565b606060018054610a2f9061271f565b80601f0160208091040260200160405190810160405280929190818152602001828054610a5b9061271f565b8015610aa85780601f10610a7d57610100808354040283529160200191610aa8565b820191906000526020600020905b815481529060010190602001808311610a8b57829003601f168201915b5050505050905090565b610ac4610abd611006565b83836112f5565b5050565b6000610ad2611122565b610adb82610dd9565b60019050919050565b600073ffffffffffffffffffffffffffffffffffffffff168473ffffffffffffffffffffffffffffffffffffffff1614610b53576040517f08c379a0000000000000000000000000000000000000000000000000000000008152600401610b4a906127c2565b60405180910390fd5b610b5f84848484611464565b50505050565b6060610b7082610f41565b506000600660008481526020019081526020016000208054610b919061271f565b80601f0160208091040260200160405190810160405280929190818152602001828054610bbd9061271f565b8015610c0a5780601f10610bdf57610100808354040283529160200191610c0a565b820191906000526020600020905b815481529060010190602001808311610bed57829003601f168201915b505050505090506000610c1b611481565b90506000815103610c30578192505050610c73565b600082511115610c65578082604051602001610c4d9291906129ce565b60405160208183030381529060405292505050610c73565b610c6e84611498565b925050505b919050565b6000600560008473ffffffffffffffffffffffffffffffffffffffff1673ffffffffffffffffffffffffffffffffffffffff16815260200190815260200160002060008373ffffffffffffffffffffffffffffffffffffffff1673ffffffffffffffffffffffffffffffffffffffff16815260200190815260200160002060009054906101000a900460ff16905092915050565b600066470de4df8200003414610d57576040517f08c379a0000000000000000000000000000000000000000000000000000000008152600401610d4e90612a3e565b60405180910390fd5b6000600854905060648110610da1576040517f08c379a0000000000000000000000000000000000000000000000000000000008152600401610d9890612aaa565b60405180910390fd5b610dab8482611501565b610db581846115fa565b600160086000828254610dc89190612af9565b925050819055508091505092915050565b610de1611122565b600073ffffffffffffffffffffffffffffffffffffffff168173ffffffffffffffffffffffffffffffffffffffff1603610e535760006040517f1e4fbdf7000000000000000000000000000000000000000000000000000000008152600401610e4a9190612288565b60405180910390fd5b610e5c8161122f565b50565b60007f80ac58cd000000000000000000000000000000000000000000000000000000007bffffffffffffffffffffffffffffffffffffffffffffffffffffffff1916827bffffffffffffffffffffffffffffffffffffffffffffffffffffffff19161480610f2a57507f5b5e139f000000000000000000000000000000000000000000000000000000007bffffffffffffffffffffffffffffffffffffffffffffffffffffffff1916827bffffffffffffffffffffffffffffffffffffffffffffffffffffffff1916145b80610f3a5750610f3982611656565b5b9050919050565b600080610f4d836116c0565b9050600073ffffffffffffffffffffffffffffffffffffffff168173ffffffffffffffffffffffffffffffffffffffff1603610fc057826040517f7e273289000000000000000000000000000000000000000000000000000000008152600401610fb79190612121565b60405180910390fd5b80915050919050565b60006004600083815260200190815260200160002060009054906101000a900473ffffffffffffffffffffffffffffffffffffffff169050919050565b600033905090565b61101b83838360016116fd565b505050565b600073ffffffffffffffffffffffffffffffffffffffff168273ffffffffffffffffffffffffffffffffffffffff16036110925760006040517f64a0ae920000000000000000000000000000000000000000000000000000000081526004016110899190612288565b60405180910390fd5b60006110a683836110a1611006565b6118c2565b90508373ffffffffffffffffffffffffffffffffffffffff168173ffffffffffffffffffffffffffffffffffffffff161461111c578382826040517f64283d7b00000000000000000000000000000000000000000000000000000000815260040161111393929190612b2d565b60405180910390fd5b50505050565b61112a611006565b73ffffffffffffffffffffffffffffffffffffffff166111486109f6565b73ffffffffffffffffffffffffffffffffffffffff16146111a75761116b611006565b6040517f118cdaa700000000000000000000000000000000000000000000000000000000815260040161119e9190612288565b60405180910390fd5b565b60006111b860008360006118c2565b9050600073ffffffffffffffffffffffffffffffffffffffff168173ffffffffffffffffffffffffffffffffffffffff160361122b57816040517f7e2732890000000000000000000000000000000000000000000000000000000081526004016112229190612121565b60405180910390fd5b5050565b6000600760009054906101000a900473ffffffffffffffffffffffffffffffffffffffff16905081600760006101000a81548173ffffffffffffffffffffffffffffffffffffffff021916908373ffffffffffffffffffffffffffffffffffffffff1602179055508173ffffffffffffffffffffffffffffffffffffffff168173ffffffffffffffffffffffffffffffffffffffff167f8be0079c531659141344cd1fd0a4f28419497f9722a3daafe3b4186f6b6457e060405160405180910390a35050565b600073ffffffffffffffffffffffffffffffffffffffff168273ffffffffffffffffffffffffffffffffffffffff160361136657816040517f5b08ba1800000000000000000000000000000000000000000000000000000000815260040161135d9190612288565b60405180910390fd5b80600560008573ffffffffffffffffffffffffffffffffffffffff1673ffffffffffffffffffffffffffffffffffffffff16815260200190815260200160002060008473ffffffffffffffffffffffffffffffffffffffff1673ffffffffffffffffffffffffffffffffffffffff16815260200190815260200160002060006101000a81548160ff0219169083151502179055508173ffffffffffffffffffffffffffffffffffffffff168373ffffffffffffffffffffffffffffffffffffffff167f17307eab39ab6107e8899845ad3d59bd9653f200f220920489ca2b5937696c318360405161145791906120ed565b60405180910390a3505050565b61146f8484846106a0565b61147b84848484611adc565b50505050565b606060405180602001604052806000815250905090565b60606114a382610f41565b5060006114ae611481565b905060008151116114ce57604051806020016040528060008152506114f9565b806114d884611c93565b6040516020016114e99291906129ce565b6040516020818303038152906040525b915050919050565b600073ffffffffffffffffffffffffffffffffffffffff168273ffffffffffffffffffffffffffffffffffffffff16036115735760006040517f64a0ae9200000000000000000000000000000000000000000000000000000000815260040161156a9190612288565b60405180910390fd5b6000611581838360006118c2565b9050600073ffffffffffffffffffffffffffffffffffffffff168173ffffffffffffffffffffffffffffffffffffffff16146115f55760006040517f73c6ac6e0000000000000000000000000000000000000000000000000000000081526004016115ec9190612288565b60405180910390fd5b505050565b8060066000848152602001908152602001600020908161161a9190612d10565b507ff8e1a15aba9398e019f0b49df1a4fde98ee17ae345cb5f6b5e2c27f5033e8ce78260405161164a9190612121565b60405180910390a15050565b60007f01ffc9a7000000000000000000000000000000000000000000000000000000007bffffffffffffffffffffffffffffffffffffffffffffffffffffffff1916827bffffffffffffffffffffffffffffffffffffffffffffffffffffffff1916149050919050565b60006002600083815260200190815260200160002060009054906101000a900473ffffffffffffffffffffffffffffffffffffffff169050919050565b80806117365750600073ffffffffffffffffffffffffffffffffffffffff168273ffffffffffffffffffffffffffffffffffffffff1614155b1561186a57600061174684610f41565b9050600073ffffffffffffffffffffffffffffffffffffffff168373ffffffffffffffffffffffffffffffffffffffff16141580156117b157508273ffffffffffffffffffffffffffffffffffffffff168173ffffffffffffffffffffffffffffffffffffffff1614155b80156117c457506117c28184610c78565b155b1561180657826040517fa9fbf51f0000000000000000000000000000000000000000000000000000000081526004016117fd9190612288565b60405180910390fd5b811561186857838573ffffffffffffffffffffffffffffffffffffffff168273ffffffffffffffffffffffffffffffffffffffff167f8c5be1e5ebec7d5bd14f71427d1e84f3dd0314c0f7b2291e5b200ac8c7c3b92560405160405180910390a45b505b836004600085815260200190815260200160002060006101000a81548173ffffffffffffffffffffffffffffffffffffffff021916908373ffffffffffffffffffffffffffffffffffffffff16021790555050505050565b6000806118ce846116c0565b9050600073ffffffffffffffffffffffffffffffffffffffff168373ffffffffffffffffffffffffffffffffffffffff16146119105761190f818486611d61565b5b600073ffffffffffffffffffffffffffffffffffffffff168173ffffffffffffffffffffffffffffffffffffffff16146119a1576119526000856000806116fd565b6001600360008373ffffffffffffffffffffffffffffffffffffffff1673ffffffffffffffffffffffffffffffffffffffff168152602001908152602001600020600082825403925050819055505b600073ffffffffffffffffffffffffffffffffffffffff168573ffffffffffffffffffffffffffffffffffffffff1614611a24576001600360008773ffffffffffffffffffffffffffffffffffffffff1673ffffffffffffffffffffffffffffffffffffffff168152602001908152602001600020600082825401925050819055505b846002600086815260200190815260200160002060006101000a81548173ffffffffffffffffffffffffffffffffffffffff021916908373ffffffffffffffffffffffffffffffffffffffff160217905550838573ffffffffffffffffffffffffffffffffffffffff168273ffffffffffffffffffffffffffffffffffffffff167fddf252ad1be2c89b69c2b068fc378daa952ba7f163c4a11628f55a4df523b3ef60405160405180910390a4809150509392505050565b60008373ffffffffffffffffffffffffffffffffffffffff163b1115611c8d578273ffffffffffffffffffffffffffffffffffffffff1663150b7a02611b20611006565b8685856040518563ffffffff1660e01b8152600401611b429493929190612e37565b6020604051808303816000875af1925050508015611b7e57506040513d601f19601f82011682018060405250810190611b7b9190612e98565b60015b611c02573d8060008114611bae576040519150601f19603f3d011682016040523d82523d6000602084013e611bb3565b606091505b506000815103611bfa57836040517f64a0ae92000000000000000000000000000000000000000000000000000000008152600401611bf19190612288565b60405180910390fd5b805181602001fd5b63150b7a0260e01b7bffffffffffffffffffffffffffffffffffffffffffffffffffffffff1916817bffffffffffffffffffffffffffffffffffffffffffffffffffffffff191614611c8b57836040517f64a0ae92000000000000000000000000000000000000000000000000000000008152600401611c829190612288565b60405180910390fd5b505b50505050565b606060006001611ca284611e25565b01905060008167ffffffffffffffff811115611cc157611cc0612405565b5b6040519080825280601f01601f191660200182016040528015611cf35781602001600182028036833780820191505090505b509050600082602001820190505b600115611d56578080600190039150507f3031323334353637383961626364656600000000000000000000000000000000600a86061a8153600a8581611d4a57611d49612ec5565b5b04945060008503611d01575b819350505050919050565b611d6c838383611f78565b611e2057600073ffffffffffffffffffffffffffffffffffffffff168373ffffffffffffffffffffffffffffffffffffffff1603611de157806040517f7e273289000000000000000000000000000000000000000000000000000000008152600401611dd89190612121565b60405180910390fd5b81816040517f177e802f000000000000000000000000000000000000000000000000000000008152600401611e17929190612ef4565b60405180910390fd5b505050565b600080600090507a184f03e93ff9f4daa797ed6e38ed64bf6a1f0100000000000000008310611e83577a184f03e93ff9f4daa797ed6e38ed64bf6a1f0100000000000000008381611e7957611e78612ec5565b5b0492506040810190505b6d04ee2d6d415b85acef81000000008310611ec0576d04ee2d6d415b85acef81000000008381611eb657611eb5612ec5565b5b0492506020810190505b662386f26fc100008310611eef57662386f26fc100008381611ee557611ee4612ec5565b5b0492506010810190505b6305f5e1008310611f18576305f5e1008381611f0e57611f0d612ec5565b5b0492506008810190505b6127108310611f3d576127108381611f3357611f32612ec5565b5b0492506004810190505b60648310611f605760648381611f5657611f55612ec5565b5b0492506002810190505b600a8310611f6f576001810190505b80915050919050565b60008073ffffffffffffffffffffffffffffffffffffffff168373ffffffffffffffffffffffffffffffffffffffff161415801561203057508273ffffffffffffffffffffffffffffffffffffffff168473ffffffffffffffffffffffffffffffffffffffff161480611ff15750611ff08484610c78565b5b8061202f57508273ffffffffffffffffffffffffffffffffffffffff1661201783610fc9565b73ffffffffffffffffffffffffffffffffffffffff16145b5b90509392505050565b6000604051905090565b600080fd5b600080fd5b60007fffffffff0000000000000000000000000000000000000000000000000000000082169050919050565b6120828161204d565b811461208d57600080fd5b50565b60008135905061209f81612079565b92915050565b6000602082840312156120bb576120ba612043565b5b60006120c984828501612090565b91505092915050565b60008115159050919050565b6120e7816120d2565b82525050565b600060208201905061210260008301846120de565b92915050565b6000819050919050565b61211b81612108565b82525050565b60006020820190506121366000830184612112565b92915050565b600081519050919050565b600082825260208201905092915050565b60005b8381101561217657808201518184015260208101905061215b565b60008484015250505050565b6000601f19601f8301169050919050565b600061219e8261213c565b6121a88185612147565b93506121b8818560208601612158565b6121c181612182565b840191505092915050565b600060208201905081810360008301526121e68184612193565b905092915050565b6121f781612108565b811461220257600080fd5b50565b600081359050612214816121ee565b92915050565b6000602082840312156122305761222f612043565b5b600061223e84828501612205565b91505092915050565b600073ffffffffffffffffffffffffffffffffffffffff82169050919050565b600061227282612247565b9050919050565b61228281612267565b82525050565b600060208201905061229d6000830184612279565b92915050565b6122ac81612267565b81146122b757600080fd5b50565b6000813590506122c9816122a3565b92915050565b600080604083850312156122e6576122e5612043565b5b60006122f4858286016122ba565b925050602061230585828601612205565b9150509250929050565b60008060006060848603121561232857612327612043565b5b6000612336868287016122ba565b9350506020612347868287016122ba565b925050604061235886828701612205565b9150509250925092565b60006020828403121561237857612377612043565b5b6000612386848285016122ba565b91505092915050565b612398816120d2565b81146123a357600080fd5b50565b6000813590506123b58161238f565b92915050565b600080604083850312156123d2576123d1612043565b5b60006123e0858286016122ba565b92505060206123f1858286016123a6565b9150509250929050565b600080fd5b600080fd5b7f4e487b7100000000000000000000000000000000000000000000000000000000600052604160045260246000fd5b61243d82612182565b810181811067ffffffffffffffff8211171561245c5761245b612405565b5b80604052505050565b600061246f612039565b905061247b8282612434565b919050565b600067ffffffffffffffff82111561249b5761249a612405565b5b6124a482612182565b9050602081019050919050565b82818337600083830152505050565b60006124d36124ce84612480565b612465565b9050828152602081018484840111156124ef576124ee612400565b5b6124fa8482856124b1565b509392505050565b600082601f830112612517576125166123fb565b5b81356125278482602086016124c0565b91505092915050565b6000806000806080858703121561254a57612549612043565b5b6000612558878288016122ba565b9450506020612569878288016122ba565b935050604061257a87828801612205565b925050606085013567ffffffffffffffff81111561259b5761259a612048565b5b6125a787828801612502565b91505092959194509250565b600080604083850312156125ca576125c9612043565b5b60006125d8858286016122ba565b92505060206125e9858286016122ba565b9150509250929050565b600067ffffffffffffffff82111561260e5761260d612405565b5b61261782612182565b9050602081019050919050565b6000612637612632846125f3565b612465565b90508281526020810184848401111561265357612652612400565b5b61265e8482856124b1565b509392505050565b600082601f83011261267b5761267a6123fb565b5b813561268b848260208601612624565b91505092915050565b600080604083850312156126ab576126aa612043565b5b60006126b9858286016122ba565b925050602083013567ffffffffffffffff8111156126da576126d9612048565b5b6126e685828601612666565b9150509250929050565b7f4e487b7100000000000000000000000000000000000000000000000000000000600052602260045260246000fd5b6000600282049050600182168061273757607f821691505b60208210810361274a576127496126f0565b5b50919050565b7f546869732069732061206e6f6e2d7472616e7366657261626c6520536f756c6260008201527f6f756e64204e46542e0000000000000000000000000000000000000000000000602082015250565b60006127ac602983612147565b91506127b782612750565b604082019050919050565b600060208201905081810360008301526127db8161279f565b9050919050565b7f556e617574686f72697a65640000000000000000000000000000000000000000600082015250565b6000612818600c83612147565b9150612823826127e2565b602082019050919050565b600060208201905081810360008301526128478161280b565b9050919050565b600081905092915050565b50565b600061286960008361284e565b915061287482612859565b600082019050919050565b600061288a8261285c565b9150819050919050565b7f5769746864726177206661696c65642e00000000000000000000000000000000600082015250565b60006128ca601083612147565b91506128d582612894565b602082019050919050565b600060208201905081810360008301526128f9816128bd565b9050919050565b7f4f6e6c7920746865206f776e6572206f662074686520746f6b656e2063616e2060008201527f6275726e2069742e000000000000000000000000000000000000000000000000602082015250565b600061295c602883612147565b915061296782612900565b604082019050919050565b6000602082019050818103600083015261298b8161294f565b9050919050565b600081905092915050565b60006129a88261213c565b6129b28185612992565b93506129c2818560208601612158565b80840191505092915050565b60006129da828561299d565b91506129e6828461299d565b91508190509392505050565b7f50726f76696465206d6f72652045544800000000000000000000000000000000600082015250565b6000612a28601083612147565b9150612a33826129f2565b602082019050919050565b60006020820190508181036000830152612a5781612a1b565b9050919050565b7f4e6f206d6f7265204e4654730000000000000000000000000000000000000000600082015250565b6000612a94600c83612147565b9150612a9f82612a5e565b602082019050919050565b60006020820190508181036000830152612ac381612a87565b9050919050565b7f4e487b7100000000000000000000000000000000000000000000000000000000600052601160045260246000fd5b6000612b0482612108565b9150612b0f83612108565b9250828201905080821115612b2757612b26612aca565b5b92915050565b6000606082019050612b426000830186612279565b612b4f6020830185612112565b612b5c6040830184612279565b949350505050565b60008190508160005260206000209050919050565b60006020601f8301049050919050565b600082821b905092915050565b600060088302612bc67fffffffffffffffffffffffffffffffffffffffffffffffffffffffffffffffff82612b89565b612bd08683612b89565b95508019841693508086168417925050509392505050565b6000819050919050565b6000612c0d612c08612c0384612108565b612be8565b612108565b9050919050565b6000819050919050565b612c2783612bf2565b612c3b612c3382612c14565b848454612b96565b825550505050565b600090565b612c50612c43565b612c5b818484612c1e565b505050565b5b81811015612c7f57612c74600082612c48565b600181019050612c61565b5050565b601f821115612cc457612c9581612b64565b612c9e84612b79565b81016020851015612cad578190505b612cc1612cb985612b79565b830182612c60565b50505b505050565b600082821c905092915050565b6000612ce760001984600802612cc9565b1980831691505092915050565b6000612d008383612cd6565b9150826002028217905092915050565b612d198261213c565b67ffffffffffffffff811115612d3257612d31612405565b5b612d3c825461271f565b612d47828285612c83565b600060209050601f831160018114612d7a5760008415612d68578287015190505b612d728582612cf4565b865550612dda565b601f198416612d8886612b64565b60005b82811015612db057848901518255600182019150602085019450602081019050612d8b565b86831015612dcd5784890151612dc9601f891682612cd6565b8355505b6001600288020188555050505b505050505050565b600081519050919050565b600082825260208201905092915050565b6000612e0982612de2565b612e138185612ded565b9350612e23818560208601612158565b612e2c81612182565b840191505092915050565b6000608082019050612e4c6000830187612279565b612e596020830186612279565b612e666040830185612112565b8181036060830152612e788184612dfe565b905095945050505050565b600081519050612e9281612079565b92915050565b600060208284031215612eae57612ead612043565b5b6000612ebc84828501612e83565b91505092915050565b7f4e487b7100000000000000000000000000000000000000000000000000000000600052601260045260246000fd5b6000604082019050612f096000830185612279565b612f166020830184612112565b939250505056fea2646970667358221220ab79f879a78310a4854e774d812eb7ac2985c40dc1ab5b3f0d4d73e7964d7e8164736f6c63430008140033",
  "linkReferences": {},
  "deployedLinkReferences": {}
}