{
  "_format": "hh-sol-artifact-1",
  "contractName": "MWAMBR",
  "sourceName": "contracts/MWAMBR.sol",
  "abi": [
    {
      "inputs": [
        {
          "internalType": "address",
          "name": "initialOwner",
          "type": "address"
        }
      ],
      "stateMutability": "nonpayable",
      "type": "constructor"
    },
    {
      "inputs": [
        {
          "internalType": "address",
          "name": "sender",
          "type": "address"
        },
        {
          "internalType": "uint256",
          "name": "tokenId",
          "type": "uint256"
        },
        {
          "internalType": "address",
          "name": "owner",
          "type": "address"
        }
      ],
      "name": "ERC721IncorrectOwner",
      "type": "error"
    },
    {
      "inputs": [
        {
          "internalType": "address",
          "name": "operator",
          "type": "address"
        },
        {
          "internalType": "uint256",
          "name": "tokenId",
          "type": "uint256"
        }
      ],
      "name": "ERC721InsufficientApproval",
      "type": "error"
    },
    {
      "inputs": [
        {
          "internalType": "address",
          "name": "approver",
          "type": "address"
        }
      ],
      "name": "ERC721InvalidApprover",
      "type": "error"
    },
    {
      "inputs": [
        {
          "internalType": "address",
          "name": "operator",
          "type": "address"
        }
      ],
      "name": "ERC721InvalidOperator",
      "type": "error"
    },
    {
      "inputs": [
        {
          "internalType": "address",
          "name": "owner",
          "type": "address"
        }
      ],
      "name": "ERC721InvalidOwner",
      "type": "error"
    },
    {
      "inputs": [
        {
          "internalType": "address",
          "name": "receiver",
          "type": "address"
        }
      ],
      "name": "ERC721InvalidReceiver",
      "type": "error"
    },
    {
      "inputs": [
        {
          "internalType": "address",
          "name": "sender",
          "type": "address"
        }
      ],
      "name": "ERC721InvalidSender",
      "type": "error"
    },
    {
      "inputs": [
        {
          "internalType": "uint256",
          "name": "tokenId",
          "type": "uint256"
        }
      ],
      "name": "ERC721NonexistentToken",
      "type": "error"
    },
    {
      "inputs": [
        {
          "internalType": "address",
          "name": "owner",
          "type": "address"
        }
      ],
      "name": "OwnableInvalidOwner",
      "type": "error"
    },
    {
      "inputs": [
        {
          "internalType": "address",
          "name": "account",
          "type": "address"
        }
      ],
      "name": "OwnableUnauthorizedAccount",
      "type": "error"
    },
    {
      "anonymous": false,
      "inputs": [
        {
          "indexed": true,
          "internalType": "address",
          "name": "owner",
          "type": "address"
        },
        {
          "indexed": true,
          "internalType": "address",
          "name": "approved",
          "type": "address"
        },
        {
          "indexed": true,
          "internalType": "uint256",
          "name": "tokenId",
          "type": "uint256"
        }
      ],
      "name": "Approval",
      "type": "event"
    },
    {
      "anonymous": false,
      "inputs": [
        {
          "indexed": true,
          "internalType": "address",
          "name": "owner",
          "type": "address"
        },
        {
          "indexed": true,
          "internalType": "address",
          "name": "operator",
          "type": "address"
        },
        {
          "indexed": false,
          "internalType": "bool",
          "name": "approved",
          "type": "bool"
        }
      ],
      "name": "ApprovalForAll",
      "type": "event"
    },
    {
      "anonymous": false,
      "inputs": [
        {
          "indexed": false,
          "internalType": "uint256",
          "name": "_fromTokenId",
          "type": "uint256"
        },
        {
          "indexed": false,
          "internalType": "uint256",
          "name": "_toTokenId",
          "type": "uint256"
        }
      ],
      "name": "BatchMetadataUpdate",
      "type": "event"
    },
    {
      "anonymous": false,
      "inputs": [
        {
          "indexed": false,
          "internalType": "uint256",
          "name": "_tokenId",
          "type": "uint256"
        }
      ],
      "name": "MetadataUpdate",
      "type": "event"
    },
    {
      "anonymous": false,
      "inputs": [
        {
          "indexed": true,
          "internalType": "address",
          "name": "previousOwner",
          "type": "address"
        },
        {
          "indexed": true,
          "internalType": "address",
          "name": "newOwner",
          "type": "address"
        }
      ],
      "name": "OwnershipTransferred",
      "type": "event"
    },
    {
      "anonymous": false,
      "inputs": [
        {
          "indexed": true,
          "internalType": "address",
          "name": "from",
          "type": "address"
        },
        {
          "indexed": true,
          "internalType": "address",
          "name": "to",
          "type": "address"
        },
        {
          "indexed": true,
          "internalType": "uint256",
          "name": "tokenId",
          "type": "uint256"
        }
      ],
      "name": "Transfer",
      "type": "event"
    },
    {
      "inputs": [
        {
          "internalType": "address",
          "name": "to",
          "type": "address"
        },
        {
          "internalType": "uint256",
          "name": "tokenId",
          "type": "uint256"
        }
      ],
      "name": "approve",
      "outputs": [],
      "stateMutability": "nonpayable",
      "type": "function"
    },
    {
      "inputs": [
        {
          "internalType": "address",
          "name": "owner",
          "type": "address"
        }
      ],
      "name": "balanceOf",
      "outputs": [
        {
          "internalType": "uint256",
          "name": "",
          "type": "uint256"
        }
      ],
      "stateMutability": "view",
      "type": "function"
    },
    {
      "inputs": [
        {
          "internalType": "uint256",
          "name": "tokenId",
          "type": "uint256"
        }
      ],
      "name": "burn",
      "outputs": [],
      "stateMutability": "nonpayable",
      "type": "function"
    },
    {
      "inputs": [
        {
          "internalType": "uint256",
          "name": "tokenId",
          "type": "uint256"
        }
      ],
      "name": "getApproved",
      "outputs": [
        {
          "internalType": "address",
          "name": "",
          "type": "address"
        }
      ],
      "stateMutability": "view",
      "type": "function"
    },
    {
      "inputs": [
        {
          "internalType": "address",
          "name": "owner",
          "type": "address"
        },
        {
          "internalType": "address",
          "name": "operator",
          "type": "address"
        }
      ],
      "name": "isApprovedForAll",
      "outputs": [
        {
          "internalType": "bool",
          "name": "",
          "type": "bool"
        }
      ],
      "stateMutability": "view",
      "type": "function"
    },
    {
      "inputs": [
        {
          "internalType": "address",
          "name": "recipient",
          "type": "address"
        },
        {
          "internalType": "string",
          "name": "tokenURI",
          "type": "string"
        }
      ],
      "name": "mintNFT",
      "outputs": [
        {
          "internalType": "uint256",
          "name": "",
          "type": "uint256"
        }
      ],
      "stateMutability": "payable",
      "type": "function"
    },
    {
      "inputs": [],
      "name": "mintPrice",
      "outputs": [
        {
          "internalType": "uint256",
          "name": "",
          "type": "uint256"
        }
      ],
      "stateMutability": "view",
      "type": "function"
    },
    {
      "inputs": [],
      "name": "name",
      "outputs": [
        {
          "internalType": "string",
          "name": "",
          "type": "string"
        }
      ],
      "stateMutability": "view",
      "type": "function"
    },
    {
      "inputs": [],
      "name": "owner",
      "outputs": [
        {
          "internalType": "address",
          "name": "",
          "type": "address"
        }
      ],
      "stateMutability": "view",
      "type": "function"
    },
    {
      "inputs": [
        {
          "internalType": "uint256",
          "name": "tokenId",
          "type": "uint256"
        }
      ],
      "name": "ownerOf",
      "outputs": [
        {
          "internalType": "address",
          "name": "",
          "type": "address"
        }
      ],
      "stateMutability": "view",
      "type": "function"
    },
    {
      "inputs": [],
      "name": "renounceOwnership",
      "outputs": [],
      "stateMutability": "nonpayable",
      "type": "function"
    },
    {
      "inputs": [
        {
          "internalType": "address",
          "name": "from",
          "type": "address"
        },
        {
          "internalType": "address",
          "name": "to",
          "type": "address"
        },
        {
          "internalType": "uint256",
          "name": "tokenId",
          "type": "uint256"
        }
      ],
      "name": "safeTransferFrom",
      "outputs": [],
      "stateMutability": "nonpayable",
      "type": "function"
    },
    {
      "inputs": [
        {
          "internalType": "address",
          "name": "from",
          "type": "address"
        },
        {
          "internalType": "address",
          "name": "to",
          "type": "address"
        },
        {
          "internalType": "uint256",
          "name": "tokenId",
          "type": "uint256"
        },
        {
          "internalType": "bytes",
          "name": "data",
          "type": "bytes"
        }
      ],
      "name": "safeTransferFrom",
      "outputs": [],
      "stateMutability": "nonpayable",
      "type": "function"
    },
    {
      "inputs": [
        {
          "internalType": "address",
          "name": "operator",
          "type": "address"
        },
        {
          "internalType": "bool",
          "name": "approved",
          "type": "bool"
        }
      ],
      "name": "setApprovalForAll",
      "outputs": [],
      "stateMutability": "nonpayable",
      "type": "function"
    },
    {
      "inputs": [],
      "name": "supply",
      "outputs": [
        {
          "internalType": "uint256",
          "name": "",
          "type": "uint256"
        }
      ],
      "stateMutability": "view",
      "type": "function"
    },
    {
      "inputs": [
        {
          "internalType": "bytes4",
          "name": "interfaceId",
          "type": "bytes4"
        }
      ],
      "name": "supportsInterface",
      "outputs": [
        {
          "internalType": "bool",
          "name": "",
          "type": "bool"
        }
      ],
      "stateMutability": "view",
      "type": "function"
    },
    {
      "inputs": [],
      "name": "symbol",
      "outputs": [
        {
          "internalType": "string",
          "name": "",
          "type": "string"
        }
      ],
      "stateMutability": "view",
      "type": "function"
    },
    {
      "inputs": [
        {
          "internalType": "uint256",
          "name": "tokenId",
          "type": "uint256"
        }
      ],
      "name": "tokenURI",
      "outputs": [
        {
          "internalType": "string",
          "name": "",
          "type": "string"
        }
      ],
      "stateMutability": "view",
      "type": "function"
    },
    {
      "inputs": [
        {
          "internalType": "address",
          "name": "from",
          "type": "address"
        },
        {
          "internalType": "address",
          "name": "to",
          "type": "address"
        },
        {
          "internalType": "uint256",
          "name": "tokenId",
          "type": "uint256"
        }
      ],
      "name": "transferFrom",
      "outputs": [],
      "stateMutability": "nonpayable",
      "type": "function"
    },
    {
      "inputs": [
        {
          "internalType": "address",
          "name": "newOwner",
          "type": "address"
        }
      ],
      "name": "transferOwnership",
      "outputs": [],
      "stateMutability": "nonpayable",
      "type": "function"
    },
    {
      "inputs": [
        {
          "internalType": "uint256",
          "name": "_price",
          "type": "uint256"
        }
      ],
      "name": "updateMintPrice",
      "outputs": [
        {
          "internalType": "uint256",
          "name": "",
          "type": "uint256"
        }
      ],
      "stateMutability": "nonpayable",
      "type": "function"
    },
    {
      "inputs": [
        {
          "internalType": "uint256",
          "name": "_supply",
          "type": "uint256"
        }
      ],
      "name": "updateSupply",
      "outputs": [
        {
          "internalType": "uint256",
          "name": "",
          "type": "uint256"
        }
      ],
      "stateMutability": "nonpayable",
      "type": "function"
    },
    {
      "inputs": [],
      "name": "withdraw",
      "outputs": [
        {
          "internalType": "bool",
          "name": "",
          "type": "bool"
        }
      ],
      "stateMutability": "payable",
      "type": "function"
    }
  ],
  "bytecode": "0x608060405266470de4df8200006009556064600a553480156200002157600080fd5b50604051620032e1380380620032e1833981810160405281019062000047919062000298565b806040518060400160405280601b81526020017f4d65746157617272696f722041726d79204d656d6265727368697000000000008152506040518060400160405280600681526020017f4d57414d425200000000000000000000000000000000000000000000000000008152508160009081620000c5919062000544565b508060019081620000d7919062000544565b505050600073ffffffffffffffffffffffffffffffffffffffff168173ffffffffffffffffffffffffffffffffffffffff16036200014f5760006040517f1e4fbdf70000000000000000000000000000000000000000000000000000000081526004016200014691906200063c565b60405180910390fd5b62000160816200016860201b60201c565b505062000659565b6000600760009054906101000a900473ffffffffffffffffffffffffffffffffffffffff16905081600760006101000a81548173ffffffffffffffffffffffffffffffffffffffff021916908373ffffffffffffffffffffffffffffffffffffffff1602179055508173ffffffffffffffffffffffffffffffffffffffff168173ffffffffffffffffffffffffffffffffffffffff167f8be0079c531659141344cd1fd0a4f28419497f9722a3daafe3b4186f6b6457e060405160405180910390a35050565b600080fd5b600073ffffffffffffffffffffffffffffffffffffffff82169050919050565b6000620002608262000233565b9050919050565b620002728162000253565b81146200027e57600080fd5b50565b600081519050620002928162000267565b92915050565b600060208284031215620002b157620002b06200022e565b5b6000620002c18482850162000281565b91505092915050565b600081519050919050565b7f4e487b7100000000000000000000000000000000000000000000000000000000600052604160045260246000fd5b7f4e487b7100000000000000000000000000000000000000000000000000000000600052602260045260246000fd5b600060028204905060018216806200034c57607f821691505b60208210810362000362576200036162000304565b5b50919050565b60008190508160005260206000209050919050565b60006020601f8301049050919050565b600082821b905092915050565b600060088302620003cc7fffffffffffffffffffffffffffffffffffffffffffffffffffffffffffffffff826200038d565b620003d886836200038d565b95508019841693508086168417925050509392505050565b6000819050919050565b6000819050919050565b6000620004256200041f6200041984620003f0565b620003fa565b620003f0565b9050919050565b6000819050919050565b620004418362000404565b6200045962000450826200042c565b8484546200039a565b825550505050565b600090565b6200047062000461565b6200047d81848462000436565b505050565b5b81811015620004a5576200049960008262000466565b60018101905062000483565b5050565b601f821115620004f457620004be8162000368565b620004c9846200037d565b81016020851015620004d9578190505b620004f1620004e8856200037d565b83018262000482565b50505b505050565b600082821c905092915050565b60006200051960001984600802620004f9565b1980831691505092915050565b600062000534838362000506565b9150826002028217905092915050565b6200054f82620002ca565b67ffffffffffffffff8111156200056b576200056a620002d5565b5b62000577825462000333565b62000584828285620004a9565b600060209050601f831160018114620005bc5760008415620005a7578287015190505b620005b3858262000526565b86555062000623565b601f198416620005cc8662000368565b60005b82811015620005f657848901518255600182019150602085019450602081019050620005cf565b8683101562000616578489015162000612601f89168262000506565b8355505b6001600288020188555050505b505050505050565b620006368162000253565b82525050565b60006020820190506200065360008301846200062b565b92915050565b612c7880620006696000396000f3fe60806040526004361061013f5760003560e01c80636817c76c116100b6578063a22cb4651161006f578063a22cb46514610462578063b88d4fde1461048b578063c87b56dd146104b4578063e985e9c5146104f1578063eacabe141461052e578063f2fde38b1461055e5761013f565b80636817c76c146103505780636bd080491461037b57806370a08231146103b8578063715018a6146103f55780638da5cb5b1461040c57806395d89b41146104375761013f565b8063095ea7b311610108578063095ea7b31461025157806323b872dd1461027a5780633ccfd60b146102a357806342842e0e146102c157806342966c68146102ea5780636352211e146103135761013f565b8062728e461461014457806301ffc9a714610181578063047fc9aa146101be57806306fdde03146101e9578063081812fc14610214575b600080fd5b34801561015057600080fd5b5061016b60048036038101906101669190611dc4565b610587565b6040516101789190611e00565b60405180910390f35b34801561018d57600080fd5b506101a860048036038101906101a39190611e73565b6105a2565b6040516101b59190611ebb565b60405180910390f35b3480156101ca57600080fd5b506101d3610603565b6040516101e09190611e00565b60405180910390f35b3480156101f557600080fd5b506101fe610609565b60405161020b9190611f66565b60405180910390f35b34801561022057600080fd5b5061023b60048036038101906102369190611dc4565b61069b565b6040516102489190611fc9565b60405180910390f35b34801561025d57600080fd5b5061027860048036038101906102739190612010565b6106b7565b005b34801561028657600080fd5b506102a1600480360381019061029c9190612050565b6106cd565b005b6102ab610708565b6040516102b89190611ebb565b60405180910390f35b3480156102cd57600080fd5b506102e860048036038101906102e39190612050565b610842565b005b3480156102f657600080fd5b50610311600480360381019061030c9190611dc4565b610862565b005b34801561031f57600080fd5b5061033a60048036038101906103359190611dc4565b6108e4565b6040516103479190611fc9565b60405180910390f35b34801561035c57600080fd5b506103656108f6565b6040516103729190611e00565b60405180910390f35b34801561038757600080fd5b506103a2600480360381019061039d9190611dc4565b6108fc565b6040516103af9190611e00565b60405180910390f35b3480156103c457600080fd5b506103df60048036038101906103da91906120a3565b61095b565b6040516103ec9190611e00565b60405180910390f35b34801561040157600080fd5b5061040a610a15565b005b34801561041857600080fd5b50610421610a29565b60405161042e9190611fc9565b60405180910390f35b34801561044357600080fd5b5061044c610a53565b6040516104599190611f66565b60405180910390f35b34801561046e57600080fd5b50610489600480360381019061048491906120fc565b610ae5565b005b34801561049757600080fd5b506104b260048036038101906104ad9190612271565b610afb565b005b3480156104c057600080fd5b506104db60048036038101906104d69190611dc4565b610b36565b6040516104e89190611f66565b60405180910390f35b3480156104fd57600080fd5b50610518600480360381019061051391906122f4565b610c49565b6040516105259190611ebb565b60405180910390f35b610548600480360381019061054391906123d5565b610cdd565b6040516105559190611e00565b60405180910390f35b34801561056a57600080fd5b50610585600480360381019061058091906120a3565b610df0565b005b6000610591610e76565b816009819055506009549050919050565b6000634906490660e01b7bffffffffffffffffffffffffffffffffffffffffffffffffffffffff1916827bffffffffffffffffffffffffffffffffffffffffffffffffffffffff191614806105fc57506105fb82610efd565b5b9050919050565b600a5481565b60606000805461061890612460565b80601f016020809104026020016040519081016040528092919081815260200182805461064490612460565b80156106915780601f1061066657610100808354040283529160200191610691565b820191906000526020600020905b81548152906001019060200180831161067457829003601f168201915b5050505050905090565b60006106a682610fdf565b506106b082611067565b9050919050565b6106c982826106c46110a4565b6110ac565b5050565b6040517f08c379a00000000000000000000000000000000000000000000000000000000081526004016106ff90612503565b60405180910390fd5b6000610712610e76565b61071a610a29565b73ffffffffffffffffffffffffffffffffffffffff163373ffffffffffffffffffffffffffffffffffffffff1614610787576040517f08c379a000000000000000000000000000000000000000000000000000000000815260040161077e9061256f565b60405180910390fd5b6000610791610a29565b73ffffffffffffffffffffffffffffffffffffffff16476040516107b4906125c0565b60006040518083038185875af1925050503d80600081146107f1576040519150601f19603f3d011682016040523d82523d6000602084013e6107f6565b606091505b505090508061083a576040517f08c379a000000000000000000000000000000000000000000000000000000000815260040161083190612621565b60405180910390fd5b600191505090565b61085d83838360405180602001604052806000815250610afb565b505050565b3373ffffffffffffffffffffffffffffffffffffffff16610882826108e4565b73ffffffffffffffffffffffffffffffffffffffff16146108d8576040517f08c379a00000000000000000000000000000000000000000000000000000000081526004016108cf906126b3565b60405180910390fd5b6108e1816110be565b50565b60006108ef82610fdf565b9050919050565b60095481565b6000610906610e76565b600854821161094a576040517f08c379a000000000000000000000000000000000000000000000000000000000815260040161094190612745565b60405180910390fd5b81600a81905550600a549050919050565b60008073ffffffffffffffffffffffffffffffffffffffff168273ffffffffffffffffffffffffffffffffffffffff16036109ce5760006040517f89c62b640000000000000000000000000000000000000000000000000000000081526004016109c59190611fc9565b60405180910390fd5b600360008373ffffffffffffffffffffffffffffffffffffffff1673ffffffffffffffffffffffffffffffffffffffff168152602001908152602001600020549050919050565b610a1d610e76565b610a276000611144565b565b6000600760009054906101000a900473ffffffffffffffffffffffffffffffffffffffff16905090565b606060018054610a6290612460565b80601f0160208091040260200160405190810160405280929190818152602001828054610a8e90612460565b8015610adb5780601f10610ab057610100808354040283529160200191610adb565b820191906000526020600020905b815481529060010190602001808311610abe57829003601f168201915b5050505050905090565b610af7610af06110a4565b838361120a565b5050565b6040517f08c379a0000000000000000000000000000000000000000000000000000000008152600401610b2d90612503565b60405180910390fd5b6060610b4182610fdf565b506000600660008481526020019081526020016000208054610b6290612460565b80601f0160208091040260200160405190810160405280929190818152602001828054610b8e90612460565b8015610bdb5780601f10610bb057610100808354040283529160200191610bdb565b820191906000526020600020905b815481529060010190602001808311610bbe57829003601f168201915b505050505090506000610bec611379565b90506000815103610c01578192505050610c44565b600082511115610c36578082604051602001610c1e9291906127a1565b60405160208183030381529060405292505050610c44565b610c3f84611390565b925050505b919050565b6000600560008473ffffffffffffffffffffffffffffffffffffffff1673ffffffffffffffffffffffffffffffffffffffff16815260200190815260200160002060008373ffffffffffffffffffffffffffffffffffffffff1673ffffffffffffffffffffffffffffffffffffffff16815260200190815260200160002060009054906101000a900460ff16905092915050565b600080610ce93361095b565b14610d29576040517f08c379a0000000000000000000000000000000000000000000000000000000008152600401610d2090612811565b60405180910390fd5b6009543414610d6d576040517f08c379a0000000000000000000000000000000000000000000000000000000008152600401610d649061287d565b60405180910390fd5b60006008549050600a548110610db8576040517f08c379a0000000000000000000000000000000000000000000000000000000008152600401610daf906128e9565b60405180910390fd5b610dc284826113f9565b610dcc81846114f2565b600160086000828254610ddf9190612938565b925050819055508091505092915050565b610df8610e76565b600073ffffffffffffffffffffffffffffffffffffffff168173ffffffffffffffffffffffffffffffffffffffff1603610e6a5760006040517f1e4fbdf7000000000000000000000000000000000000000000000000000000008152600401610e619190611fc9565b60405180910390fd5b610e7381611144565b50565b610e7e6110a4565b73ffffffffffffffffffffffffffffffffffffffff16610e9c610a29565b73ffffffffffffffffffffffffffffffffffffffff1614610efb57610ebf6110a4565b6040517f118cdaa7000000000000000000000000000000000000000000000000000000008152600401610ef29190611fc9565b60405180910390fd5b565b60007f80ac58cd000000000000000000000000000000000000000000000000000000007bffffffffffffffffffffffffffffffffffffffffffffffffffffffff1916827bffffffffffffffffffffffffffffffffffffffffffffffffffffffff19161480610fc857507f5b5e139f000000000000000000000000000000000000000000000000000000007bffffffffffffffffffffffffffffffffffffffffffffffffffffffff1916827bffffffffffffffffffffffffffffffffffffffffffffffffffffffff1916145b80610fd85750610fd78261154e565b5b9050919050565b600080610feb836115b8565b9050600073ffffffffffffffffffffffffffffffffffffffff168173ffffffffffffffffffffffffffffffffffffffff160361105e57826040517f7e2732890000000000000000000000000000000000000000000000000000000081526004016110559190611e00565b60405180910390fd5b80915050919050565b60006004600083815260200190815260200160002060009054906101000a900473ffffffffffffffffffffffffffffffffffffffff169050919050565b600033905090565b6110b983838360016115f5565b505050565b60006110cd60008360006117ba565b9050600073ffffffffffffffffffffffffffffffffffffffff168173ffffffffffffffffffffffffffffffffffffffff160361114057816040517f7e2732890000000000000000000000000000000000000000000000000000000081526004016111379190611e00565b60405180910390fd5b5050565b6000600760009054906101000a900473ffffffffffffffffffffffffffffffffffffffff16905081600760006101000a81548173ffffffffffffffffffffffffffffffffffffffff021916908373ffffffffffffffffffffffffffffffffffffffff1602179055508173ffffffffffffffffffffffffffffffffffffffff168173ffffffffffffffffffffffffffffffffffffffff167f8be0079c531659141344cd1fd0a4f28419497f9722a3daafe3b4186f6b6457e060405160405180910390a35050565b600073ffffffffffffffffffffffffffffffffffffffff168273ffffffffffffffffffffffffffffffffffffffff160361127b57816040517f5b08ba180000000000000000000000000000000000000000000000000000000081526004016112729190611fc9565b60405180910390fd5b80600560008573ffffffffffffffffffffffffffffffffffffffff1673ffffffffffffffffffffffffffffffffffffffff16815260200190815260200160002060008473ffffffffffffffffffffffffffffffffffffffff1673ffffffffffffffffffffffffffffffffffffffff16815260200190815260200160002060006101000a81548160ff0219169083151502179055508173ffffffffffffffffffffffffffffffffffffffff168373ffffffffffffffffffffffffffffffffffffffff167f17307eab39ab6107e8899845ad3d59bd9653f200f220920489ca2b5937696c318360405161136c9190611ebb565b60405180910390a3505050565b606060405180602001604052806000815250905090565b606061139b82610fdf565b5060006113a6611379565b905060008151116113c657604051806020016040528060008152506113f1565b806113d0846119d4565b6040516020016113e19291906127a1565b6040516020818303038152906040525b915050919050565b600073ffffffffffffffffffffffffffffffffffffffff168273ffffffffffffffffffffffffffffffffffffffff160361146b5760006040517f64a0ae920000000000000000000000000000000000000000000000000000000081526004016114629190611fc9565b60405180910390fd5b6000611479838360006117ba565b9050600073ffffffffffffffffffffffffffffffffffffffff168173ffffffffffffffffffffffffffffffffffffffff16146114ed5760006040517f73c6ac6e0000000000000000000000000000000000000000000000000000000081526004016114e49190611fc9565b60405180910390fd5b505050565b806006600084815260200190815260200160002090816115129190612b18565b507ff8e1a15aba9398e019f0b49df1a4fde98ee17ae345cb5f6b5e2c27f5033e8ce7826040516115429190611e00565b60405180910390a15050565b60007f01ffc9a7000000000000000000000000000000000000000000000000000000007bffffffffffffffffffffffffffffffffffffffffffffffffffffffff1916827bffffffffffffffffffffffffffffffffffffffffffffffffffffffff1916149050919050565b60006002600083815260200190815260200160002060009054906101000a900473ffffffffffffffffffffffffffffffffffffffff169050919050565b808061162e5750600073ffffffffffffffffffffffffffffffffffffffff168273ffffffffffffffffffffffffffffffffffffffff1614155b1561176257600061163e84610fdf565b9050600073ffffffffffffffffffffffffffffffffffffffff168373ffffffffffffffffffffffffffffffffffffffff16141580156116a957508273ffffffffffffffffffffffffffffffffffffffff168173ffffffffffffffffffffffffffffffffffffffff1614155b80156116bc57506116ba8184610c49565b155b156116fe57826040517fa9fbf51f0000000000000000000000000000000000000000000000000000000081526004016116f59190611fc9565b60405180910390fd5b811561176057838573ffffffffffffffffffffffffffffffffffffffff168273ffffffffffffffffffffffffffffffffffffffff167f8c5be1e5ebec7d5bd14f71427d1e84f3dd0314c0f7b2291e5b200ac8c7c3b92560405160405180910390a45b505b836004600085815260200190815260200160002060006101000a81548173ffffffffffffffffffffffffffffffffffffffff021916908373ffffffffffffffffffffffffffffffffffffffff16021790555050505050565b6000806117c6846115b8565b9050600073ffffffffffffffffffffffffffffffffffffffff168373ffffffffffffffffffffffffffffffffffffffff161461180857611807818486611aa2565b5b600073ffffffffffffffffffffffffffffffffffffffff168173ffffffffffffffffffffffffffffffffffffffff16146118995761184a6000856000806115f5565b6001600360008373ffffffffffffffffffffffffffffffffffffffff1673ffffffffffffffffffffffffffffffffffffffff168152602001908152602001600020600082825403925050819055505b600073ffffffffffffffffffffffffffffffffffffffff168573ffffffffffffffffffffffffffffffffffffffff161461191c576001600360008773ffffffffffffffffffffffffffffffffffffffff1673ffffffffffffffffffffffffffffffffffffffff168152602001908152602001600020600082825401925050819055505b846002600086815260200190815260200160002060006101000a81548173ffffffffffffffffffffffffffffffffffffffff021916908373ffffffffffffffffffffffffffffffffffffffff160217905550838573ffffffffffffffffffffffffffffffffffffffff168273ffffffffffffffffffffffffffffffffffffffff167fddf252ad1be2c89b69c2b068fc378daa952ba7f163c4a11628f55a4df523b3ef60405160405180910390a4809150509392505050565b6060600060016119e384611b66565b01905060008167ffffffffffffffff811115611a0257611a01612146565b5b6040519080825280601f01601f191660200182016040528015611a345781602001600182028036833780820191505090505b509050600082602001820190505b600115611a97578080600190039150507f3031323334353637383961626364656600000000000000000000000000000000600a86061a8153600a8581611a8b57611a8a612bea565b5b04945060008503611a42575b819350505050919050565b611aad838383611cb9565b611b6157600073ffffffffffffffffffffffffffffffffffffffff168373ffffffffffffffffffffffffffffffffffffffff1603611b2257806040517f7e273289000000000000000000000000000000000000000000000000000000008152600401611b199190611e00565b60405180910390fd5b81816040517f177e802f000000000000000000000000000000000000000000000000000000008152600401611b58929190612c19565b60405180910390fd5b505050565b600080600090507a184f03e93ff9f4daa797ed6e38ed64bf6a1f0100000000000000008310611bc4577a184f03e93ff9f4daa797ed6e38ed64bf6a1f0100000000000000008381611bba57611bb9612bea565b5b0492506040810190505b6d04ee2d6d415b85acef81000000008310611c01576d04ee2d6d415b85acef81000000008381611bf757611bf6612bea565b5b0492506020810190505b662386f26fc100008310611c3057662386f26fc100008381611c2657611c25612bea565b5b0492506010810190505b6305f5e1008310611c59576305f5e1008381611c4f57611c4e612bea565b5b0492506008810190505b6127108310611c7e576127108381611c7457611c73612bea565b5b0492506004810190505b60648310611ca15760648381611c9757611c96612bea565b5b0492506002810190505b600a8310611cb0576001810190505b80915050919050565b60008073ffffffffffffffffffffffffffffffffffffffff168373ffffffffffffffffffffffffffffffffffffffff1614158015611d7157508273ffffffffffffffffffffffffffffffffffffffff168473ffffffffffffffffffffffffffffffffffffffff161480611d325750611d318484610c49565b5b80611d7057508273ffffffffffffffffffffffffffffffffffffffff16611d5883611067565b73ffffffffffffffffffffffffffffffffffffffff16145b5b90509392505050565b6000604051905090565b600080fd5b600080fd5b6000819050919050565b611da181611d8e565b8114611dac57600080fd5b50565b600081359050611dbe81611d98565b92915050565b600060208284031215611dda57611dd9611d84565b5b6000611de884828501611daf565b91505092915050565b611dfa81611d8e565b82525050565b6000602082019050611e156000830184611df1565b92915050565b60007fffffffff0000000000000000000000000000000000000000000000000000000082169050919050565b611e5081611e1b565b8114611e5b57600080fd5b50565b600081359050611e6d81611e47565b92915050565b600060208284031215611e8957611e88611d84565b5b6000611e9784828501611e5e565b91505092915050565b60008115159050919050565b611eb581611ea0565b82525050565b6000602082019050611ed06000830184611eac565b92915050565b600081519050919050565b600082825260208201905092915050565b60005b83811015611f10578082015181840152602081019050611ef5565b60008484015250505050565b6000601f19601f8301169050919050565b6000611f3882611ed6565b611f428185611ee1565b9350611f52818560208601611ef2565b611f5b81611f1c565b840191505092915050565b60006020820190508181036000830152611f808184611f2d565b905092915050565b600073ffffffffffffffffffffffffffffffffffffffff82169050919050565b6000611fb382611f88565b9050919050565b611fc381611fa8565b82525050565b6000602082019050611fde6000830184611fba565b92915050565b611fed81611fa8565b8114611ff857600080fd5b50565b60008135905061200a81611fe4565b92915050565b6000806040838503121561202757612026611d84565b5b600061203585828601611ffb565b925050602061204685828601611daf565b9150509250929050565b60008060006060848603121561206957612068611d84565b5b600061207786828701611ffb565b935050602061208886828701611ffb565b925050604061209986828701611daf565b9150509250925092565b6000602082840312156120b9576120b8611d84565b5b60006120c784828501611ffb565b91505092915050565b6120d981611ea0565b81146120e457600080fd5b50565b6000813590506120f6816120d0565b92915050565b6000806040838503121561211357612112611d84565b5b600061212185828601611ffb565b9250506020612132858286016120e7565b9150509250929050565b600080fd5b600080fd5b7f4e487b7100000000000000000000000000000000000000000000000000000000600052604160045260246000fd5b61217e82611f1c565b810181811067ffffffffffffffff8211171561219d5761219c612146565b5b80604052505050565b60006121b0611d7a565b90506121bc8282612175565b919050565b600067ffffffffffffffff8211156121dc576121db612146565b5b6121e582611f1c565b9050602081019050919050565b82818337600083830152505050565b600061221461220f846121c1565b6121a6565b9050828152602081018484840111156122305761222f612141565b5b61223b8482856121f2565b509392505050565b600082601f8301126122585761225761213c565b5b8135612268848260208601612201565b91505092915050565b6000806000806080858703121561228b5761228a611d84565b5b600061229987828801611ffb565b94505060206122aa87828801611ffb565b93505060406122bb87828801611daf565b925050606085013567ffffffffffffffff8111156122dc576122db611d89565b5b6122e887828801612243565b91505092959194509250565b6000806040838503121561230b5761230a611d84565b5b600061231985828601611ffb565b925050602061232a85828601611ffb565b9150509250929050565b600067ffffffffffffffff82111561234f5761234e612146565b5b61235882611f1c565b9050602081019050919050565b600061237861237384612334565b6121a6565b90508281526020810184848401111561239457612393612141565b5b61239f8482856121f2565b509392505050565b600082601f8301126123bc576123bb61213c565b5b81356123cc848260208601612365565b91505092915050565b600080604083850312156123ec576123eb611d84565b5b60006123fa85828601611ffb565b925050602083013567ffffffffffffffff81111561241b5761241a611d89565b5b612427858286016123a7565b9150509250929050565b7f4e487b7100000000000000000000000000000000000000000000000000000000600052602260045260246000fd5b6000600282049050600182168061247857607f821691505b60208210810361248b5761248a612431565b5b50919050565b7f54686973206973206120536f756c626f756e64204e46542c207472616e73666560008201527f727320617265206e6f7420616c6c6f7765642e00000000000000000000000000602082015250565b60006124ed603383611ee1565b91506124f882612491565b604082019050919050565b6000602082019050818103600083015261251c816124e0565b9050919050565b7f556e617574686f72697a65640000000000000000000000000000000000000000600082015250565b6000612559600c83611ee1565b915061256482612523565b602082019050919050565b600060208201905081810360008301526125888161254c565b9050919050565b600081905092915050565b50565b60006125aa60008361258f565b91506125b58261259a565b600082019050919050565b60006125cb8261259d565b9150819050919050565b7f5769746864726177206661696c65642e00000000000000000000000000000000600082015250565b600061260b601083611ee1565b9150612616826125d5565b602082019050919050565b6000602082019050818103600083015261263a816125fe565b9050919050565b7f4f6e6c7920746865206f776e6572206f6620746865204e46542063616e20627560008201527f726e2069742e0000000000000000000000000000000000000000000000000000602082015250565b600061269d602683611ee1565b91506126a882612641565b604082019050919050565b600060208201905081810360008301526126cc81612690565b9050919050565b7f4e657720737570706c79206d7573742062652067726561746572207468616e2060008201527f63757272656e74206d696e74656420737570706c792e00000000000000000000602082015250565b600061272f603683611ee1565b915061273a826126d3565b604082019050919050565b6000602082019050818103600083015261275e81612722565b9050919050565b600081905092915050565b600061277b82611ed6565b6127858185612765565b9350612795818560208601611ef2565b80840191505092915050565b60006127ad8285612770565b91506127b98284612770565b91508190509392505050565b7f4d6178204d696e74207065722077616c6c657420726561636865640000000000600082015250565b60006127fb601b83611ee1565b9150612806826127c5565b602082019050919050565b6000602082019050818103600083015261282a816127ee565b9050919050565b7f302e30322045544820746f204d696e7400000000000000000000000000000000600082015250565b6000612867601083611ee1565b915061287282612831565b602082019050919050565b600060208201905081810360008301526128968161285a565b9050919050565b7f4e6f206d6f7265204e4654730000000000000000000000000000000000000000600082015250565b60006128d3600c83611ee1565b91506128de8261289d565b602082019050919050565b60006020820190508181036000830152612902816128c6565b9050919050565b7f4e487b7100000000000000000000000000000000000000000000000000000000600052601160045260246000fd5b600061294382611d8e565b915061294e83611d8e565b925082820190508082111561296657612965612909565b5b92915050565b60008190508160005260206000209050919050565b60006020601f8301049050919050565b600082821b905092915050565b6000600883026129ce7fffffffffffffffffffffffffffffffffffffffffffffffffffffffffffffffff82612991565b6129d88683612991565b95508019841693508086168417925050509392505050565b6000819050919050565b6000612a15612a10612a0b84611d8e565b6129f0565b611d8e565b9050919050565b6000819050919050565b612a2f836129fa565b612a43612a3b82612a1c565b84845461299e565b825550505050565b600090565b612a58612a4b565b612a63818484612a26565b505050565b5b81811015612a8757612a7c600082612a50565b600181019050612a69565b5050565b601f821115612acc57612a9d8161296c565b612aa684612981565b81016020851015612ab5578190505b612ac9612ac185612981565b830182612a68565b50505b505050565b600082821c905092915050565b6000612aef60001984600802612ad1565b1980831691505092915050565b6000612b088383612ade565b9150826002028217905092915050565b612b2182611ed6565b67ffffffffffffffff811115612b3a57612b39612146565b5b612b448254612460565b612b4f828285612a8b565b600060209050601f831160018114612b825760008415612b70578287015190505b612b7a8582612afc565b865550612be2565b601f198416612b908661296c565b60005b82811015612bb857848901518255600182019150602085019450602081019050612b93565b86831015612bd55784890151612bd1601f891682612ade565b8355505b6001600288020188555050505b505050505050565b7f4e487b7100000000000000000000000000000000000000000000000000000000600052601260045260246000fd5b6000604082019050612c2e6000830185611fba565b612c3b6020830184611df1565b939250505056fea2646970667358221220d9570b7e05f947b49e64b925d2e4ca9e1d9a27277887af83b9dfa8f070f19d3264736f6c63430008180033",
  "linkReferences": {},
  "deployedLinkReferences": {}
}