{
  "_format": "hh-sol-artifact-1",
  "contractName": "MWAMBR",
  "sourceName": "contracts/MWAMBR.sol",
  "abi": [
    {
      "inputs": [
        {
          "internalType": "address",
          "name": "initialOwner",
          "type": "address"
        }
      ],
      "stateMutability": "nonpayable",
      "type": "constructor"
    },
    {
      "inputs": [
        {
          "internalType": "address",
          "name": "sender",
          "type": "address"
        },
        {
          "internalType": "uint256",
          "name": "tokenId",
          "type": "uint256"
        },
        {
          "internalType": "address",
          "name": "owner",
          "type": "address"
        }
      ],
      "name": "ERC721IncorrectOwner",
      "type": "error"
    },
    {
      "inputs": [
        {
          "internalType": "address",
          "name": "operator",
          "type": "address"
        },
        {
          "internalType": "uint256",
          "name": "tokenId",
          "type": "uint256"
        }
      ],
      "name": "ERC721InsufficientApproval",
      "type": "error"
    },
    {
      "inputs": [
        {
          "internalType": "address",
          "name": "approver",
          "type": "address"
        }
      ],
      "name": "ERC721InvalidApprover",
      "type": "error"
    },
    {
      "inputs": [
        {
          "internalType": "address",
          "name": "operator",
          "type": "address"
        }
      ],
      "name": "ERC721InvalidOperator",
      "type": "error"
    },
    {
      "inputs": [
        {
          "internalType": "address",
          "name": "owner",
          "type": "address"
        }
      ],
      "name": "ERC721InvalidOwner",
      "type": "error"
    },
    {
      "inputs": [
        {
          "internalType": "address",
          "name": "receiver",
          "type": "address"
        }
      ],
      "name": "ERC721InvalidReceiver",
      "type": "error"
    },
    {
      "inputs": [
        {
          "internalType": "address",
          "name": "sender",
          "type": "address"
        }
      ],
      "name": "ERC721InvalidSender",
      "type": "error"
    },
    {
      "inputs": [
        {
          "internalType": "uint256",
          "name": "tokenId",
          "type": "uint256"
        }
      ],
      "name": "ERC721NonexistentToken",
      "type": "error"
    },
    {
      "inputs": [
        {
          "internalType": "address",
          "name": "owner",
          "type": "address"
        }
      ],
      "name": "OwnableInvalidOwner",
      "type": "error"
    },
    {
      "inputs": [
        {
          "internalType": "address",
          "name": "account",
          "type": "address"
        }
      ],
      "name": "OwnableUnauthorizedAccount",
      "type": "error"
    },
    {
      "anonymous": false,
      "inputs": [
        {
          "indexed": true,
          "internalType": "address",
          "name": "owner",
          "type": "address"
        },
        {
          "indexed": true,
          "internalType": "address",
          "name": "approved",
          "type": "address"
        },
        {
          "indexed": true,
          "internalType": "uint256",
          "name": "tokenId",
          "type": "uint256"
        }
      ],
      "name": "Approval",
      "type": "event"
    },
    {
      "anonymous": false,
      "inputs": [
        {
          "indexed": true,
          "internalType": "address",
          "name": "owner",
          "type": "address"
        },
        {
          "indexed": true,
          "internalType": "address",
          "name": "operator",
          "type": "address"
        },
        {
          "indexed": false,
          "internalType": "bool",
          "name": "approved",
          "type": "bool"
        }
      ],
      "name": "ApprovalForAll",
      "type": "event"
    },
    {
      "anonymous": false,
      "inputs": [
        {
          "indexed": false,
          "internalType": "uint256",
          "name": "_fromTokenId",
          "type": "uint256"
        },
        {
          "indexed": false,
          "internalType": "uint256",
          "name": "_toTokenId",
          "type": "uint256"
        }
      ],
      "name": "BatchMetadataUpdate",
      "type": "event"
    },
    {
      "anonymous": false,
      "inputs": [
        {
          "indexed": false,
          "internalType": "uint256",
          "name": "_tokenId",
          "type": "uint256"
        }
      ],
      "name": "MetadataUpdate",
      "type": "event"
    },
    {
      "anonymous": false,
      "inputs": [
        {
          "indexed": true,
          "internalType": "address",
          "name": "previousOwner",
          "type": "address"
        },
        {
          "indexed": true,
          "internalType": "address",
          "name": "newOwner",
          "type": "address"
        }
      ],
      "name": "OwnershipTransferred",
      "type": "event"
    },
    {
      "anonymous": false,
      "inputs": [
        {
          "indexed": true,
          "internalType": "address",
          "name": "from",
          "type": "address"
        },
        {
          "indexed": true,
          "internalType": "address",
          "name": "to",
          "type": "address"
        },
        {
          "indexed": true,
          "internalType": "uint256",
          "name": "tokenId",
          "type": "uint256"
        }
      ],
      "name": "Transfer",
      "type": "event"
    },
    {
      "inputs": [
        {
          "internalType": "address",
          "name": "to",
          "type": "address"
        },
        {
          "internalType": "uint256",
          "name": "tokenId",
          "type": "uint256"
        }
      ],
      "name": "approve",
      "outputs": [],
      "stateMutability": "nonpayable",
      "type": "function"
    },
    {
      "inputs": [
        {
          "internalType": "address",
          "name": "owner",
          "type": "address"
        }
      ],
      "name": "balanceOf",
      "outputs": [
        {
          "internalType": "uint256",
          "name": "",
          "type": "uint256"
        }
      ],
      "stateMutability": "view",
      "type": "function"
    },
    {
      "inputs": [
        {
          "internalType": "uint256",
          "name": "tokenId",
          "type": "uint256"
        }
      ],
      "name": "burn",
      "outputs": [],
      "stateMutability": "nonpayable",
      "type": "function"
    },
    {
      "inputs": [
        {
          "internalType": "uint256",
          "name": "tokenId",
          "type": "uint256"
        }
      ],
      "name": "getApproved",
      "outputs": [
        {
          "internalType": "address",
          "name": "",
          "type": "address"
        }
      ],
      "stateMutability": "view",
      "type": "function"
    },
    {
      "inputs": [
        {
          "internalType": "address",
          "name": "owner",
          "type": "address"
        },
        {
          "internalType": "address",
          "name": "operator",
          "type": "address"
        }
      ],
      "name": "isApprovedForAll",
      "outputs": [
        {
          "internalType": "bool",
          "name": "",
          "type": "bool"
        }
      ],
      "stateMutability": "view",
      "type": "function"
    },
    {
      "inputs": [
        {
          "internalType": "address",
          "name": "recipient",
          "type": "address"
        },
        {
          "internalType": "string",
          "name": "tokenURI",
          "type": "string"
        }
      ],
      "name": "mintNFT",
      "outputs": [
        {
          "internalType": "uint256",
          "name": "",
          "type": "uint256"
        }
      ],
      "stateMutability": "payable",
      "type": "function"
    },
    {
      "inputs": [],
      "name": "mintPrice",
      "outputs": [
        {
          "internalType": "uint256",
          "name": "",
          "type": "uint256"
        }
      ],
      "stateMutability": "view",
      "type": "function"
    },
    {
      "inputs": [],
      "name": "name",
      "outputs": [
        {
          "internalType": "string",
          "name": "",
          "type": "string"
        }
      ],
      "stateMutability": "view",
      "type": "function"
    },
    {
      "inputs": [],
      "name": "owner",
      "outputs": [
        {
          "internalType": "address",
          "name": "",
          "type": "address"
        }
      ],
      "stateMutability": "view",
      "type": "function"
    },
    {
      "inputs": [
        {
          "internalType": "uint256",
          "name": "tokenId",
          "type": "uint256"
        }
      ],
      "name": "ownerOf",
      "outputs": [
        {
          "internalType": "address",
          "name": "",
          "type": "address"
        }
      ],
      "stateMutability": "view",
      "type": "function"
    },
    {
      "inputs": [],
      "name": "renounceOwnership",
      "outputs": [],
      "stateMutability": "nonpayable",
      "type": "function"
    },
    {
      "inputs": [
        {
          "internalType": "address",
          "name": "from",
          "type": "address"
        },
        {
          "internalType": "address",
          "name": "to",
          "type": "address"
        },
        {
          "internalType": "uint256",
          "name": "tokenId",
          "type": "uint256"
        }
      ],
      "name": "safeTransferFrom",
      "outputs": [],
      "stateMutability": "nonpayable",
      "type": "function"
    },
    {
      "inputs": [
        {
          "internalType": "address",
          "name": "from",
          "type": "address"
        },
        {
          "internalType": "address",
          "name": "to",
          "type": "address"
        },
        {
          "internalType": "uint256",
          "name": "tokenId",
          "type": "uint256"
        },
        {
          "internalType": "bytes",
          "name": "data",
          "type": "bytes"
        }
      ],
      "name": "safeTransferFrom",
      "outputs": [],
      "stateMutability": "nonpayable",
      "type": "function"
    },
    {
      "inputs": [
        {
          "internalType": "address",
          "name": "operator",
          "type": "address"
        },
        {
          "internalType": "bool",
          "name": "approved",
          "type": "bool"
        }
      ],
      "name": "setApprovalForAll",
      "outputs": [],
      "stateMutability": "nonpayable",
      "type": "function"
    },
    {
      "inputs": [],
      "name": "supply",
      "outputs": [
        {
          "internalType": "uint256",
          "name": "",
          "type": "uint256"
        }
      ],
      "stateMutability": "view",
      "type": "function"
    },
    {
      "inputs": [
        {
          "internalType": "bytes4",
          "name": "interfaceId",
          "type": "bytes4"
        }
      ],
      "name": "supportsInterface",
      "outputs": [
        {
          "internalType": "bool",
          "name": "",
          "type": "bool"
        }
      ],
      "stateMutability": "view",
      "type": "function"
    },
    {
      "inputs": [],
      "name": "symbol",
      "outputs": [
        {
          "internalType": "string",
          "name": "",
          "type": "string"
        }
      ],
      "stateMutability": "view",
      "type": "function"
    },
    {
      "inputs": [
        {
          "internalType": "uint256",
          "name": "tokenId",
          "type": "uint256"
        }
      ],
      "name": "tokenURI",
      "outputs": [
        {
          "internalType": "string",
          "name": "",
          "type": "string"
        }
      ],
      "stateMutability": "view",
      "type": "function"
    },
    {
      "inputs": [
        {
          "internalType": "address",
          "name": "from",
          "type": "address"
        },
        {
          "internalType": "address",
          "name": "to",
          "type": "address"
        },
        {
          "internalType": "uint256",
          "name": "tokenId",
          "type": "uint256"
        }
      ],
      "name": "transferFrom",
      "outputs": [],
      "stateMutability": "nonpayable",
      "type": "function"
    },
    {
      "inputs": [
        {
          "internalType": "address",
          "name": "newOwner",
          "type": "address"
        }
      ],
      "name": "transferOwnership",
      "outputs": [],
      "stateMutability": "nonpayable",
      "type": "function"
    },
    {
      "inputs": [
        {
          "internalType": "uint256",
          "name": "_price",
          "type": "uint256"
        }
      ],
      "name": "updateMintPrice",
      "outputs": [
        {
          "internalType": "uint256",
          "name": "",
          "type": "uint256"
        }
      ],
      "stateMutability": "nonpayable",
      "type": "function"
    },
    {
      "inputs": [
        {
          "internalType": "uint256",
          "name": "_supply",
          "type": "uint256"
        }
      ],
      "name": "updateSupply",
      "outputs": [
        {
          "internalType": "uint256",
          "name": "",
          "type": "uint256"
        }
      ],
      "stateMutability": "nonpayable",
      "type": "function"
    },
    {
      "inputs": [],
      "name": "withdraw",
      "outputs": [
        {
          "internalType": "bool",
          "name": "",
          "type": "bool"
        }
      ],
      "stateMutability": "payable",
      "type": "function"
    }
  ],
  "bytecode": "0x608060405266470de4df8200006009556064600a553480156200002157600080fd5b506040516200322b3803806200322b833981810160405281019062000047919062000298565b806040518060400160405280601b81526020017f4d65746157617272696f722041726d79204d656d6265727368697000000000008152506040518060400160405280600681526020017f4d57414d425200000000000000000000000000000000000000000000000000008152508160009081620000c5919062000544565b508060019081620000d7919062000544565b505050600073ffffffffffffffffffffffffffffffffffffffff168173ffffffffffffffffffffffffffffffffffffffff16036200014f5760006040517f1e4fbdf70000000000000000000000000000000000000000000000000000000081526004016200014691906200063c565b60405180910390fd5b62000160816200016860201b60201c565b505062000659565b6000600760009054906101000a900473ffffffffffffffffffffffffffffffffffffffff16905081600760006101000a81548173ffffffffffffffffffffffffffffffffffffffff021916908373ffffffffffffffffffffffffffffffffffffffff1602179055508173ffffffffffffffffffffffffffffffffffffffff168173ffffffffffffffffffffffffffffffffffffffff167f8be0079c531659141344cd1fd0a4f28419497f9722a3daafe3b4186f6b6457e060405160405180910390a35050565b600080fd5b600073ffffffffffffffffffffffffffffffffffffffff82169050919050565b6000620002608262000233565b9050919050565b620002728162000253565b81146200027e57600080fd5b50565b600081519050620002928162000267565b92915050565b600060208284031215620002b157620002b06200022e565b5b6000620002c18482850162000281565b91505092915050565b600081519050919050565b7f4e487b7100000000000000000000000000000000000000000000000000000000600052604160045260246000fd5b7f4e487b7100000000000000000000000000000000000000000000000000000000600052602260045260246000fd5b600060028204905060018216806200034c57607f821691505b60208210810362000362576200036162000304565b5b50919050565b60008190508160005260206000209050919050565b60006020601f8301049050919050565b600082821b905092915050565b600060088302620003cc7fffffffffffffffffffffffffffffffffffffffffffffffffffffffffffffffff826200038d565b620003d886836200038d565b95508019841693508086168417925050509392505050565b6000819050919050565b6000819050919050565b6000620004256200041f6200041984620003f0565b620003fa565b620003f0565b9050919050565b6000819050919050565b620004418362000404565b6200045962000450826200042c565b8484546200039a565b825550505050565b600090565b6200047062000461565b6200047d81848462000436565b505050565b5b81811015620004a5576200049960008262000466565b60018101905062000483565b5050565b601f821115620004f457620004be8162000368565b620004c9846200037d565b81016020851015620004d9578190505b620004f1620004e8856200037d565b83018262000482565b50505b505050565b600082821c905092915050565b60006200051960001984600802620004f9565b1980831691505092915050565b600062000534838362000506565b9150826002028217905092915050565b6200054f82620002ca565b67ffffffffffffffff8111156200056b576200056a620002d5565b5b62000577825462000333565b62000584828285620004a9565b600060209050601f831160018114620005bc5760008415620005a7578287015190505b620005b3858262000526565b86555062000623565b601f198416620005cc8662000368565b60005b82811015620005f657848901518255600182019150602085019450602081019050620005cf565b8683101562000616578489015162000612601f89168262000506565b8355505b6001600288020188555050505b505050505050565b620006368162000253565b82525050565b60006020820190506200065360008301846200062b565b92915050565b612bc280620006696000396000f3fe60806040526004361061013f5760003560e01c80636817c76c116100b6578063a22cb4651161006f578063a22cb46514610462578063b88d4fde1461048b578063c87b56dd146104b4578063e985e9c5146104f1578063eacabe141461052e578063f2fde38b1461055e5761013f565b80636817c76c146103505780636bd080491461037b57806370a08231146103b8578063715018a6146103f55780638da5cb5b1461040c57806395d89b41146104375761013f565b8063095ea7b311610108578063095ea7b31461025157806323b872dd1461027a5780633ccfd60b146102a357806342842e0e146102c157806342966c68146102ea5780636352211e146103135761013f565b8062728e461461014457806301ffc9a714610181578063047fc9aa146101be57806306fdde03146101e9578063081812fc14610214575b600080fd5b34801561015057600080fd5b5061016b60048036038101906101669190611d7a565b610587565b6040516101789190611db6565b60405180910390f35b34801561018d57600080fd5b506101a860048036038101906101a39190611e29565b6105a2565b6040516101b59190611e71565b60405180910390f35b3480156101ca57600080fd5b506101d3610603565b6040516101e09190611db6565b60405180910390f35b3480156101f557600080fd5b506101fe610609565b60405161020b9190611f1c565b60405180910390f35b34801561022057600080fd5b5061023b60048036038101906102369190611d7a565b61069b565b6040516102489190611f7f565b60405180910390f35b34801561025d57600080fd5b5061027860048036038101906102739190611fc6565b6106b7565b005b34801561028657600080fd5b506102a1600480360381019061029c9190612006565b6106cd565b005b6102ab610708565b6040516102b89190611e71565b60405180910390f35b3480156102cd57600080fd5b506102e860048036038101906102e39190612006565b610842565b005b3480156102f657600080fd5b50610311600480360381019061030c9190611d7a565b610862565b005b34801561031f57600080fd5b5061033a60048036038101906103359190611d7a565b6108e4565b6040516103479190611f7f565b60405180910390f35b34801561035c57600080fd5b506103656108f6565b6040516103729190611db6565b60405180910390f35b34801561038757600080fd5b506103a2600480360381019061039d9190611d7a565b6108fc565b6040516103af9190611db6565b60405180910390f35b3480156103c457600080fd5b506103df60048036038101906103da9190612059565b61095b565b6040516103ec9190611db6565b60405180910390f35b34801561040157600080fd5b5061040a610a15565b005b34801561041857600080fd5b50610421610a29565b60405161042e9190611f7f565b60405180910390f35b34801561044357600080fd5b5061044c610a53565b6040516104599190611f1c565b60405180910390f35b34801561046e57600080fd5b50610489600480360381019061048491906120b2565b610ae5565b005b34801561049757600080fd5b506104b260048036038101906104ad9190612227565b610afb565b005b3480156104c057600080fd5b506104db60048036038101906104d69190611d7a565b610b36565b6040516104e89190611f1c565b60405180910390f35b3480156104fd57600080fd5b50610518600480360381019061051391906122aa565b610c49565b6040516105259190611e71565b60405180910390f35b6105486004803603810190610543919061238b565b610cdd565b6040516105559190611db6565b60405180910390f35b34801561056a57600080fd5b5061058560048036038101906105809190612059565b610da6565b005b6000610591610e2c565b816009819055506009549050919050565b6000634906490660e01b7bffffffffffffffffffffffffffffffffffffffffffffffffffffffff1916827bffffffffffffffffffffffffffffffffffffffffffffffffffffffff191614806105fc57506105fb82610eb3565b5b9050919050565b600a5481565b60606000805461061890612416565b80601f016020809104026020016040519081016040528092919081815260200182805461064490612416565b80156106915780601f1061066657610100808354040283529160200191610691565b820191906000526020600020905b81548152906001019060200180831161067457829003601f168201915b5050505050905090565b60006106a682610f95565b506106b08261101d565b9050919050565b6106c982826106c461105a565b611062565b5050565b6040517f08c379a00000000000000000000000000000000000000000000000000000000081526004016106ff906124b9565b60405180910390fd5b6000610712610e2c565b61071a610a29565b73ffffffffffffffffffffffffffffffffffffffff163373ffffffffffffffffffffffffffffffffffffffff1614610787576040517f08c379a000000000000000000000000000000000000000000000000000000000815260040161077e90612525565b60405180910390fd5b6000610791610a29565b73ffffffffffffffffffffffffffffffffffffffff16476040516107b490612576565b60006040518083038185875af1925050503d80600081146107f1576040519150601f19603f3d011682016040523d82523d6000602084013e6107f6565b606091505b505090508061083a576040517f08c379a0000000000000000000000000000000000000000000000000000000008152600401610831906125d7565b60405180910390fd5b600191505090565b61085d83838360405180602001604052806000815250610afb565b505050565b3373ffffffffffffffffffffffffffffffffffffffff16610882826108e4565b73ffffffffffffffffffffffffffffffffffffffff16146108d8576040517f08c379a00000000000000000000000000000000000000000000000000000000081526004016108cf90612669565b60405180910390fd5b6108e181611074565b50565b60006108ef82610f95565b9050919050565b60095481565b6000610906610e2c565b600854821161094a576040517f08c379a0000000000000000000000000000000000000000000000000000000008152600401610941906126fb565b60405180910390fd5b81600a81905550600a549050919050565b60008073ffffffffffffffffffffffffffffffffffffffff168273ffffffffffffffffffffffffffffffffffffffff16036109ce5760006040517f89c62b640000000000000000000000000000000000000000000000000000000081526004016109c59190611f7f565b60405180910390fd5b600360008373ffffffffffffffffffffffffffffffffffffffff1673ffffffffffffffffffffffffffffffffffffffff168152602001908152602001600020549050919050565b610a1d610e2c565b610a2760006110fa565b565b6000600760009054906101000a900473ffffffffffffffffffffffffffffffffffffffff16905090565b606060018054610a6290612416565b80601f0160208091040260200160405190810160405280929190818152602001828054610a8e90612416565b8015610adb5780601f10610ab057610100808354040283529160200191610adb565b820191906000526020600020905b815481529060010190602001808311610abe57829003601f168201915b5050505050905090565b610af7610af061105a565b83836111c0565b5050565b6040517f08c379a0000000000000000000000000000000000000000000000000000000008152600401610b2d906124b9565b60405180910390fd5b6060610b4182610f95565b506000600660008481526020019081526020016000208054610b6290612416565b80601f0160208091040260200160405190810160405280929190818152602001828054610b8e90612416565b8015610bdb5780601f10610bb057610100808354040283529160200191610bdb565b820191906000526020600020905b815481529060010190602001808311610bbe57829003601f168201915b505050505090506000610bec61132f565b90506000815103610c01578192505050610c44565b600082511115610c36578082604051602001610c1e929190612757565b60405160208183030381529060405292505050610c44565b610c3f84611346565b925050505b919050565b6000600560008473ffffffffffffffffffffffffffffffffffffffff1673ffffffffffffffffffffffffffffffffffffffff16815260200190815260200160002060008373ffffffffffffffffffffffffffffffffffffffff1673ffffffffffffffffffffffffffffffffffffffff16815260200190815260200160002060009054906101000a900460ff16905092915050565b60006009543414610d23576040517f08c379a0000000000000000000000000000000000000000000000000000000008152600401610d1a906127c7565b60405180910390fd5b60006008549050600a548110610d6e576040517f08c379a0000000000000000000000000000000000000000000000000000000008152600401610d6590612833565b60405180910390fd5b610d7884826113af565b610d8281846114a8565b600160086000828254610d959190612882565b925050819055508091505092915050565b610dae610e2c565b600073ffffffffffffffffffffffffffffffffffffffff168173ffffffffffffffffffffffffffffffffffffffff1603610e205760006040517f1e4fbdf7000000000000000000000000000000000000000000000000000000008152600401610e179190611f7f565b60405180910390fd5b610e29816110fa565b50565b610e3461105a565b73ffffffffffffffffffffffffffffffffffffffff16610e52610a29565b73ffffffffffffffffffffffffffffffffffffffff1614610eb157610e7561105a565b6040517f118cdaa7000000000000000000000000000000000000000000000000000000008152600401610ea89190611f7f565b60405180910390fd5b565b60007f80ac58cd000000000000000000000000000000000000000000000000000000007bffffffffffffffffffffffffffffffffffffffffffffffffffffffff1916827bffffffffffffffffffffffffffffffffffffffffffffffffffffffff19161480610f7e57507f5b5e139f000000000000000000000000000000000000000000000000000000007bffffffffffffffffffffffffffffffffffffffffffffffffffffffff1916827bffffffffffffffffffffffffffffffffffffffffffffffffffffffff1916145b80610f8e5750610f8d82611504565b5b9050919050565b600080610fa18361156e565b9050600073ffffffffffffffffffffffffffffffffffffffff168173ffffffffffffffffffffffffffffffffffffffff160361101457826040517f7e27328900000000000000000000000000000000000000000000000000000000815260040161100b9190611db6565b60405180910390fd5b80915050919050565b60006004600083815260200190815260200160002060009054906101000a900473ffffffffffffffffffffffffffffffffffffffff169050919050565b600033905090565b61106f83838360016115ab565b505050565b60006110836000836000611770565b9050600073ffffffffffffffffffffffffffffffffffffffff168173ffffffffffffffffffffffffffffffffffffffff16036110f657816040517f7e2732890000000000000000000000000000000000000000000000000000000081526004016110ed9190611db6565b60405180910390fd5b5050565b6000600760009054906101000a900473ffffffffffffffffffffffffffffffffffffffff16905081600760006101000a81548173ffffffffffffffffffffffffffffffffffffffff021916908373ffffffffffffffffffffffffffffffffffffffff1602179055508173ffffffffffffffffffffffffffffffffffffffff168173ffffffffffffffffffffffffffffffffffffffff167f8be0079c531659141344cd1fd0a4f28419497f9722a3daafe3b4186f6b6457e060405160405180910390a35050565b600073ffffffffffffffffffffffffffffffffffffffff168273ffffffffffffffffffffffffffffffffffffffff160361123157816040517f5b08ba180000000000000000000000000000000000000000000000000000000081526004016112289190611f7f565b60405180910390fd5b80600560008573ffffffffffffffffffffffffffffffffffffffff1673ffffffffffffffffffffffffffffffffffffffff16815260200190815260200160002060008473ffffffffffffffffffffffffffffffffffffffff1673ffffffffffffffffffffffffffffffffffffffff16815260200190815260200160002060006101000a81548160ff0219169083151502179055508173ffffffffffffffffffffffffffffffffffffffff168373ffffffffffffffffffffffffffffffffffffffff167f17307eab39ab6107e8899845ad3d59bd9653f200f220920489ca2b5937696c31836040516113229190611e71565b60405180910390a3505050565b606060405180602001604052806000815250905090565b606061135182610f95565b50600061135c61132f565b9050600081511161137c57604051806020016040528060008152506113a7565b806113868461198a565b604051602001611397929190612757565b6040516020818303038152906040525b915050919050565b600073ffffffffffffffffffffffffffffffffffffffff168273ffffffffffffffffffffffffffffffffffffffff16036114215760006040517f64a0ae920000000000000000000000000000000000000000000000000000000081526004016114189190611f7f565b60405180910390fd5b600061142f83836000611770565b9050600073ffffffffffffffffffffffffffffffffffffffff168173ffffffffffffffffffffffffffffffffffffffff16146114a35760006040517f73c6ac6e00000000000000000000000000000000000000000000000000000000815260040161149a9190611f7f565b60405180910390fd5b505050565b806006600084815260200190815260200160002090816114c89190612a62565b507ff8e1a15aba9398e019f0b49df1a4fde98ee17ae345cb5f6b5e2c27f5033e8ce7826040516114f89190611db6565b60405180910390a15050565b60007f01ffc9a7000000000000000000000000000000000000000000000000000000007bffffffffffffffffffffffffffffffffffffffffffffffffffffffff1916827bffffffffffffffffffffffffffffffffffffffffffffffffffffffff1916149050919050565b60006002600083815260200190815260200160002060009054906101000a900473ffffffffffffffffffffffffffffffffffffffff169050919050565b80806115e45750600073ffffffffffffffffffffffffffffffffffffffff168273ffffffffffffffffffffffffffffffffffffffff1614155b156117185760006115f484610f95565b9050600073ffffffffffffffffffffffffffffffffffffffff168373ffffffffffffffffffffffffffffffffffffffff161415801561165f57508273ffffffffffffffffffffffffffffffffffffffff168173ffffffffffffffffffffffffffffffffffffffff1614155b801561167257506116708184610c49565b155b156116b457826040517fa9fbf51f0000000000000000000000000000000000000000000000000000000081526004016116ab9190611f7f565b60405180910390fd5b811561171657838573ffffffffffffffffffffffffffffffffffffffff168273ffffffffffffffffffffffffffffffffffffffff167f8c5be1e5ebec7d5bd14f71427d1e84f3dd0314c0f7b2291e5b200ac8c7c3b92560405160405180910390a45b505b836004600085815260200190815260200160002060006101000a81548173ffffffffffffffffffffffffffffffffffffffff021916908373ffffffffffffffffffffffffffffffffffffffff16021790555050505050565b60008061177c8461156e565b9050600073ffffffffffffffffffffffffffffffffffffffff168373ffffffffffffffffffffffffffffffffffffffff16146117be576117bd818486611a58565b5b600073ffffffffffffffffffffffffffffffffffffffff168173ffffffffffffffffffffffffffffffffffffffff161461184f576118006000856000806115ab565b6001600360008373ffffffffffffffffffffffffffffffffffffffff1673ffffffffffffffffffffffffffffffffffffffff168152602001908152602001600020600082825403925050819055505b600073ffffffffffffffffffffffffffffffffffffffff168573ffffffffffffffffffffffffffffffffffffffff16146118d2576001600360008773ffffffffffffffffffffffffffffffffffffffff1673ffffffffffffffffffffffffffffffffffffffff168152602001908152602001600020600082825401925050819055505b846002600086815260200190815260200160002060006101000a81548173ffffffffffffffffffffffffffffffffffffffff021916908373ffffffffffffffffffffffffffffffffffffffff160217905550838573ffffffffffffffffffffffffffffffffffffffff168273ffffffffffffffffffffffffffffffffffffffff167fddf252ad1be2c89b69c2b068fc378daa952ba7f163c4a11628f55a4df523b3ef60405160405180910390a4809150509392505050565b60606000600161199984611b1c565b01905060008167ffffffffffffffff8111156119b8576119b76120fc565b5b6040519080825280601f01601f1916602001820160405280156119ea5781602001600182028036833780820191505090505b509050600082602001820190505b600115611a4d578080600190039150507f3031323334353637383961626364656600000000000000000000000000000000600a86061a8153600a8581611a4157611a40612b34565b5b049450600085036119f8575b819350505050919050565b611a63838383611c6f565b611b1757600073ffffffffffffffffffffffffffffffffffffffff168373ffffffffffffffffffffffffffffffffffffffff1603611ad857806040517f7e273289000000000000000000000000000000000000000000000000000000008152600401611acf9190611db6565b60405180910390fd5b81816040517f177e802f000000000000000000000000000000000000000000000000000000008152600401611b0e929190612b63565b60405180910390fd5b505050565b600080600090507a184f03e93ff9f4daa797ed6e38ed64bf6a1f0100000000000000008310611b7a577a184f03e93ff9f4daa797ed6e38ed64bf6a1f0100000000000000008381611b7057611b6f612b34565b5b0492506040810190505b6d04ee2d6d415b85acef81000000008310611bb7576d04ee2d6d415b85acef81000000008381611bad57611bac612b34565b5b0492506020810190505b662386f26fc100008310611be657662386f26fc100008381611bdc57611bdb612b34565b5b0492506010810190505b6305f5e1008310611c0f576305f5e1008381611c0557611c04612b34565b5b0492506008810190505b6127108310611c34576127108381611c2a57611c29612b34565b5b0492506004810190505b60648310611c575760648381611c4d57611c4c612b34565b5b0492506002810190505b600a8310611c66576001810190505b80915050919050565b60008073ffffffffffffffffffffffffffffffffffffffff168373ffffffffffffffffffffffffffffffffffffffff1614158015611d2757508273ffffffffffffffffffffffffffffffffffffffff168473ffffffffffffffffffffffffffffffffffffffff161480611ce85750611ce78484610c49565b5b80611d2657508273ffffffffffffffffffffffffffffffffffffffff16611d0e8361101d565b73ffffffffffffffffffffffffffffffffffffffff16145b5b90509392505050565b6000604051905090565b600080fd5b600080fd5b6000819050919050565b611d5781611d44565b8114611d6257600080fd5b50565b600081359050611d7481611d4e565b92915050565b600060208284031215611d9057611d8f611d3a565b5b6000611d9e84828501611d65565b91505092915050565b611db081611d44565b82525050565b6000602082019050611dcb6000830184611da7565b92915050565b60007fffffffff0000000000000000000000000000000000000000000000000000000082169050919050565b611e0681611dd1565b8114611e1157600080fd5b50565b600081359050611e2381611dfd565b92915050565b600060208284031215611e3f57611e3e611d3a565b5b6000611e4d84828501611e14565b91505092915050565b60008115159050919050565b611e6b81611e56565b82525050565b6000602082019050611e866000830184611e62565b92915050565b600081519050919050565b600082825260208201905092915050565b60005b83811015611ec6578082015181840152602081019050611eab565b60008484015250505050565b6000601f19601f8301169050919050565b6000611eee82611e8c565b611ef88185611e97565b9350611f08818560208601611ea8565b611f1181611ed2565b840191505092915050565b60006020820190508181036000830152611f368184611ee3565b905092915050565b600073ffffffffffffffffffffffffffffffffffffffff82169050919050565b6000611f6982611f3e565b9050919050565b611f7981611f5e565b82525050565b6000602082019050611f946000830184611f70565b92915050565b611fa381611f5e565b8114611fae57600080fd5b50565b600081359050611fc081611f9a565b92915050565b60008060408385031215611fdd57611fdc611d3a565b5b6000611feb85828601611fb1565b9250506020611ffc85828601611d65565b9150509250929050565b60008060006060848603121561201f5761201e611d3a565b5b600061202d86828701611fb1565b935050602061203e86828701611fb1565b925050604061204f86828701611d65565b9150509250925092565b60006020828403121561206f5761206e611d3a565b5b600061207d84828501611fb1565b91505092915050565b61208f81611e56565b811461209a57600080fd5b50565b6000813590506120ac81612086565b92915050565b600080604083850312156120c9576120c8611d3a565b5b60006120d785828601611fb1565b92505060206120e88582860161209d565b9150509250929050565b600080fd5b600080fd5b7f4e487b7100000000000000000000000000000000000000000000000000000000600052604160045260246000fd5b61213482611ed2565b810181811067ffffffffffffffff82111715612153576121526120fc565b5b80604052505050565b6000612166611d30565b9050612172828261212b565b919050565b600067ffffffffffffffff821115612192576121916120fc565b5b61219b82611ed2565b9050602081019050919050565b82818337600083830152505050565b60006121ca6121c584612177565b61215c565b9050828152602081018484840111156121e6576121e56120f7565b5b6121f18482856121a8565b509392505050565b600082601f83011261220e5761220d6120f2565b5b813561221e8482602086016121b7565b91505092915050565b6000806000806080858703121561224157612240611d3a565b5b600061224f87828801611fb1565b945050602061226087828801611fb1565b935050604061227187828801611d65565b925050606085013567ffffffffffffffff81111561229257612291611d3f565b5b61229e878288016121f9565b91505092959194509250565b600080604083850312156122c1576122c0611d3a565b5b60006122cf85828601611fb1565b92505060206122e085828601611fb1565b9150509250929050565b600067ffffffffffffffff821115612305576123046120fc565b5b61230e82611ed2565b9050602081019050919050565b600061232e612329846122ea565b61215c565b90508281526020810184848401111561234a576123496120f7565b5b6123558482856121a8565b509392505050565b600082601f830112612372576123716120f2565b5b813561238284826020860161231b565b91505092915050565b600080604083850312156123a2576123a1611d3a565b5b60006123b085828601611fb1565b925050602083013567ffffffffffffffff8111156123d1576123d0611d3f565b5b6123dd8582860161235d565b9150509250929050565b7f4e487b7100000000000000000000000000000000000000000000000000000000600052602260045260246000fd5b6000600282049050600182168061242e57607f821691505b602082108103612441576124406123e7565b5b50919050565b7f54686973206973206120536f756c626f756e64204e46542c207472616e73666560008201527f727320617265206e6f7420616c6c6f7765642e00000000000000000000000000602082015250565b60006124a3603383611e97565b91506124ae82612447565b604082019050919050565b600060208201905081810360008301526124d281612496565b9050919050565b7f556e617574686f72697a65640000000000000000000000000000000000000000600082015250565b600061250f600c83611e97565b915061251a826124d9565b602082019050919050565b6000602082019050818103600083015261253e81612502565b9050919050565b600081905092915050565b50565b6000612560600083612545565b915061256b82612550565b600082019050919050565b600061258182612553565b9150819050919050565b7f5769746864726177206661696c65642e00000000000000000000000000000000600082015250565b60006125c1601083611e97565b91506125cc8261258b565b602082019050919050565b600060208201905081810360008301526125f0816125b4565b9050919050565b7f4f6e6c7920746865206f776e6572206f6620746865204e46542063616e20627560008201527f726e2069742e0000000000000000000000000000000000000000000000000000602082015250565b6000612653602683611e97565b915061265e826125f7565b604082019050919050565b6000602082019050818103600083015261268281612646565b9050919050565b7f4e657720737570706c79206d7573742062652067726561746572207468616e2060008201527f63757272656e74206d696e74656420737570706c792e00000000000000000000602082015250565b60006126e5603683611e97565b91506126f082612689565b604082019050919050565b60006020820190508181036000830152612714816126d8565b9050919050565b600081905092915050565b600061273182611e8c565b61273b818561271b565b935061274b818560208601611ea8565b80840191505092915050565b60006127638285612726565b915061276f8284612726565b91508190509392505050565b7f302e30322045544820746f204d696e7400000000000000000000000000000000600082015250565b60006127b1601083611e97565b91506127bc8261277b565b602082019050919050565b600060208201905081810360008301526127e0816127a4565b9050919050565b7f4e6f206d6f7265204e4654730000000000000000000000000000000000000000600082015250565b600061281d600c83611e97565b9150612828826127e7565b602082019050919050565b6000602082019050818103600083015261284c81612810565b9050919050565b7f4e487b7100000000000000000000000000000000000000000000000000000000600052601160045260246000fd5b600061288d82611d44565b915061289883611d44565b92508282019050808211156128b0576128af612853565b5b92915050565b60008190508160005260206000209050919050565b60006020601f8301049050919050565b600082821b905092915050565b6000600883026129187fffffffffffffffffffffffffffffffffffffffffffffffffffffffffffffffff826128db565b61292286836128db565b95508019841693508086168417925050509392505050565b6000819050919050565b600061295f61295a61295584611d44565b61293a565b611d44565b9050919050565b6000819050919050565b61297983612944565b61298d61298582612966565b8484546128e8565b825550505050565b600090565b6129a2612995565b6129ad818484612970565b505050565b5b818110156129d1576129c660008261299a565b6001810190506129b3565b5050565b601f821115612a16576129e7816128b6565b6129f0846128cb565b810160208510156129ff578190505b612a13612a0b856128cb565b8301826129b2565b50505b505050565b600082821c905092915050565b6000612a3960001984600802612a1b565b1980831691505092915050565b6000612a528383612a28565b9150826002028217905092915050565b612a6b82611e8c565b67ffffffffffffffff811115612a8457612a836120fc565b5b612a8e8254612416565b612a998282856129d5565b600060209050601f831160018114612acc5760008415612aba578287015190505b612ac48582612a46565b865550612b2c565b601f198416612ada866128b6565b60005b82811015612b0257848901518255600182019150602085019450602081019050612add565b86831015612b1f5784890151612b1b601f891682612a28565b8355505b6001600288020188555050505b505050505050565b7f4e487b7100000000000000000000000000000000000000000000000000000000600052601260045260246000fd5b6000604082019050612b786000830185611f70565b612b856020830184611da7565b939250505056fea264697066735822122003f626dfdf1258c9523e66fadf6ef3eb455d7f9749922d70d523e11ba51a658e64736f6c63430008180033",
  "linkReferences": {},
  "deployedLinkReferences": {}
}